:02000000ff00ff
:080002004c6174746963650030
:17000a00694345637562653220323031372e30382e32373934300069
:15002100506172743a2069434534305550354b2d53473438002c
:1b003600446174653a204d617220323920323032302030323a32353a32350084
:0200510000ffae
:040053007eaa997e6a
:02005700510056
:0200590001059f
:03005b00920020f0
:03005e006202b388
:03006100720150d9
:0300640082000017
:02006700110086
:02006900010193
:20006b00000000000000000000000010000000000000400000000000010000000000000420
:20008b000000000000001000000000000040200000000000000000000040000200000000a3
:1600ab0000000000000004000000000000100000000800004000e3
:2000c1000000000000000000000000020000000000000800000000000020000000000000f5
:2000e10080000000000000000000000000000000000000000000000000000000000000007f
:17010100200000000000008000000000000200000000b0000800008d
:200118000000000000000000000000000000000000000000000000000000000000000000c7
:20013800000000000000000000000080000010000000000000000000000000010000000016
:160158000000000000000000000000000000000000000000000091
:20016e00000000000000000000000000000000000000000000000000000000000000000071
:20018e00000000000000000000000050000000000000010000000000000000000000000000
:1701ae0010000000000000000000000000000000000000000000002a
:2001c50000000000000000000000000000000000000000000000000000000000000000001a
:2001e50000000000000000000000000000002000000040000000058000000002000000040f
:1602050000000000000000000000000000000000000000000000e3
:20021b000000000000000000000000000000000000000000000000000000000000000000c3
:20023b00000000000000000000000000000000000000040000000008000000000000000097
:17025b0040000000000000000000000000000000000000000000004c
:2002720000000000000000000000000000000000000000000000000000000000000000006c
:2002920000000000000000000000000000000000000000000000000000000000000000004c
:1602b2000000000000000000000000000000000000000000000036
:2002c800000000000000000000000000000000000000000000000000000000000000000016
:2002e8000000000000000000000000000000000000000000000000000000000000000000f6
:170308000000000000000000000000000000000000000000000000de
:20031f000000000000000000000000000000000000000000000000000000000000000000be
:20033f000000000000001000000000000040000000801000000000000040000000000c0171
:16035f000000000000000000000000000000000000000000000088
:20037500000000000000000000000000000000000000000000000000000000000000000068
:20039500000000000000000000000000000000000000000000000000000000000000000048
:1703b500000000000000000000000000000000000000000000000031
:2003cc00000000000000000000000000000000000000000000000000000000000000000011
:2003ec000000000000000000000000000100000000000000000000000300000100020000ea
:16040c000000000000000000000000000000000000000000c0001a
:200422000000000000000000000000000000000000000000000000000000000000000000ba
:20044200000001000000000000080000003001001600000000080000002000000001e00041
:1704620000000000000000000000000000000000000000000c000077
:20047900000000000000000000000000000000000000000000000000000000000000000063
:20049900000000000000000000000000000000000000000000000000020000000000000839
:1604b900000000000000000000000000000000000000000000002d
:2004cf0000000000000000000000000000000000000000000000000000000000000000000d
:2004ef000000010000000000000400000000010000000000000400000000000010000400cf
:17050f000000000000000000000000000000000000000000000000d5
:200526000000000000000000000000000000000000000000000000000000000000000000b5
:200546000000000000400000000000010000000000400000000000010000000000000c0007
:16056600000000000000000000000000000000000000000000007f
:20057c0000000000000000000000000000000000000000000000000000000000000000005f
:20059c0000000200000000000008000000000200000000000008000000000000000000002b
:1705bc00000000000000000000000000000000000000000000000028
:2005d300000000000c302000000000000000000000000000000000000000000000000000ac
:2005f3000000000000000000000000000000000000000000000000000000000000000000e8
:1606130000000000000000000000000000000000000000000000d1
:200629000000000000c30000000000000000000000000000000000000000000000000000ee
:20064900000000000000000000000000000000000000000000000000000000000000000091
:1706690000000000000000000000000000000000000000000000007a
:20068000000000000c302000000000000000000000000000000000000000000000000000fe
:2006a00000000000000000000000000000000000000000000000000000000000000000003a
:1606c0000000000000000000000000000000000000000000000024
:2006d6000000000000c3000000000000000000000000000000000000000000000000000041
:2006f6000000000000000000000000000000000000000000000000000000000000000000e4
:170716000000000000000000000000000000000000000000000000cc
:20072d00000000000c30200000000000000000000000000000000000000000000000000050
:20074d0000000000000000000000000000000000000000000000000000000000000000008c
:16076d000000000000000000000000000000000000000000000076
:200783000000000000c3000000000000000000000000000000000000000000000000000093
:2007a300000000000000000000000000000000000000000000000000000000000000000036
:1707c30000000000000000000000000000000000000000000000001f
:2007da00000000000c302000000000000000000000000000000000000000000000000000a3
:2007fa000000000000000000000000000000000000000000000000000000000000000000df
:16081a0000000000000000000000000000000000000000000000c8
:200830000000000000c30000000000000000000000000000000000000000000000000000e5
:20085000000000000000000000000000000000000000000000000000000000000000000088
:17087000000000000000000000000000000000000000000000000071
:20088700000000000c302000000000000000000000000000000000000000000000000000f5
:2008a700000000000000000000000000000000000000000000000000000000000000000031
:1608c700000000000000000000000000000000000000000000001b
:2008dd000000000000c3000000000000000000000000000000000000000000000000000038
:2008fd000000000000000000000000000000000000000000000000000000000000000000db
:17091d000000000000000000000000000000000000000000000000c3
:20093400000000000c30200000000000000000000000000000000000000000000000000047
:20095400000000000000000000000000000000000000000000000000000000000000000083
:16097400000000000000000000000000000000000000000000006d
:20098a000000000000c300000000000000000000000000000000000000000000000000008a
:2009aa0000000000000000000000000000000000000000000000000000000000000000002d
:1709ca00000000000000000000000000000000000000000000000016
:2009e100000000000c3020000000000000000000000000000000000000000000000000009a
:200a01000000000000000000000000000000000000000000000000000000000000000000d5
:160a210000000000000000000000000000000000000000000000bf
:200a37000000000000c30000000000000000000000000000000000000000000000000000dc
:200a570000000000000000000000000000000000000000000000000000000000000000007f
:170a7700000000000000000000000000000000000000000000000068
:200a8e00000000000c302000000000000000000000000000000000000000000000000000ec
:200aae00000000000000000000000000000000000000000000000000000000000000000028
:160ace000000000000000000000000000000000000000000000012
:200ae4000000000000c300000000000000000000000000000000000000000000000000002f
:200b04000000000000000000000000000000000000000000000000000000000000000000d1
:170b24000000000000000000000000000000000000000000000000ba
:200b3b00000000000c3020000000000000000000000000000000000000000000000000003e
:200b5b00000000000000000000000000000000000000000001000000000000000000000079
:160b7b000000000000000000000000000000000000000000000064
:200b91000000000000c3000000000000000000000000000000000000000000000000000081
:200bb100000000000000000000000000000000000000000000100000000000000000000014
:170bd10000000000000000000000000000000000000000000000000d
:200be800000000000c30200000000000000000000000000000000000000000000000000091
:200c08000000000000000000000000000000000000000000000000000000000000000000cc
:160c280000000000000000000000000000000000000000000000b6
:200c3e000000000000c30000000000000000000000000000000000000000000000000000d3
:200c5e00000000000000000000000000000000000000000000000000000000000000000076
:170c7e0000000000000000000000000000000000000000000000005f
:200c9500000000000c302000000000000000000000000000000000000000000000000000e3
:200cb50000000000000000000000000000000000000000000000000000000000000000001f
:160cd5000000000000000000000000000000000080000000000089
:200ceb000000000000c3000000000000000000000000000000000000000000000000000026
:200d0b000000000000000000000000000000000000000000000000000000000000000000c8
:170d2b000000000000000000000000000000000000000000000000b1
:200d4200000000000c30200000000000000000000000000000000000000000000000000035
:200d6200000000000000000000000000000000000000000000000000000000000000000071
:160d8200000000000000000000000000000000000000000000005b
:200d98000000000000c3000000000000000000000000000000000000000000000000000078
:200db8000000000000000000000000000000000000000000000000000000000000004000db
:170dd800000000000000000000000000000000000000000000000004
:200def00000000000c30200000000000000000000000000000000000000000000000000088
:200e0f000000000000000000000000000000000000000000000000000000000000000000c3
:160e2f0000000000000000000000000000000000000000000000ad
:200e45000000000000c30000000000000000000000000000000000000000000000000000ca
:200e650000000000000000000000000000000000000000000000000000000000000000006d
:170e8500000000000000000000000000000000000000000000000056
:200e9c00000000000c302000000000000000000000000000000000000000000000000000da
:200ebc00000000000000000000000000000000000000000000000000000000000000000016
:160edc000000000000000000000000000000000000000000000000
:200ef2000000000000c300000000000000000000000000000000000000000000000000001d
:200f12000000000000000000000000000000000000000000000000000000000000000000bf
:170f32000000000000000000000000000000000000000000000000a8
:200f4900000000000c3020000000000000000000000000000000000000000000000000002c
:200f6900000000000000000000000000000000000000000000000000000000000000000068
:160f89000000000000000000000000000000000000000000000052
:200f9f000000000000c300000000000000000000000000000000000000000000000000006f
:200fbf00000000000000000000000000000000000000000000000000000000000000000012
:170fdf000000000000000000000000000000000000000000000000fb
:200ff600000000000c3020000000000000000000000000000000000000000000000000007f
:201016000000000000000000000000000000000000000000000000000000000000000000ba
:1610360000000000000000000000000000000000000000000000a4
:20104c000000000000c30000000000000000000000000000000000000000000000000000c1
:20106c00000000000000000000000000000000000000000000000000000000000000000064
:17108c0000000000000000000000000000000000000000000000004d
:2010a300000000000c302000000000000000000000000000000000000000000000000000d1
:2010c30000000000000000000000000000000000000000000000000000000000000000000d
:1610e30000000000000000000000000000000000000000000000f7
:2010f9000000000000c3000000000000000000000000000000000000000000000000000014
:201119000000000000000000000000000000000000000000000000000000000000000000b6
:1711390000000000000000000000000000000000000000000000009f
:20115000000000000c30200000000000000000000000000000000000000000000000000023
:2011700000000000000000000000000000000000000000000000000000000000000000005f
:161190000000000000000000000000000000000000000000000049
:2011a6000000000000c3000000000000000000000000000000000000000000000000000066
:2011c600000000000000000000000000000000000000000000000000000000000000000009
:1711e6000000000000000000000000000000000000100000000000e2
:2011fd00000000000c30200000000000000000000000000000000000000000000000000076
:20121d000000000000000000000000000000000000000000000000000000000000000000b1
:16123d00000000000000000000000000000000000000000000009b
:201253000000000000c30000000000000000000000000000000000000000000000000000b8
:2012730000000000000000000000000000000000000000000000000000000000000000005b
:17129300000000000000000000000000000000000000000000000044
:2012aa00000000000c302000000000000000000000000000000000000000000000000000c8
:2012ca00000000000000000000000000000000000000000000000000000000000000000004
:1612ea0000000000000000000000000000000000000000000000ee
:201300000000000000c300000000000000000000000000000000000000000000000000000a
:2013200000000000000000000000000000000000000000000000000000000000018000002c
:17134000000000000000000000000000000000000000000000000096
:20135700000000000c3020000000000000000000000000000000000000000000000000001a
:20137700000000000000000000000000000000000000000000000000000000000000000056
:161397000000000000000000000000000000000000000000000040
:2013ad000000000000c300000000000000000000000000000000000000000000000000005d
:2013cd000000000000000000000000000000000000000000000020000000000000000000e0
:1713ed000000000000000000000000000000000000000000000000e9
:20140400000000000c3020000000000000000000000000000000000000000000000000006c
:201424000000000000000000000000000000000000000000000000000000000000000000a8
:161444000000000000000000000000000000000000000000000092
:20145a000000000000c30000000000000000000000000000000000000000000000000000af
:20147a00000000000000000000000000000000000000000000000000000000000000000052
:17149a0000000000000000000000000000000000000000000000003b
:2014b100000000000c302000000000000000000000000000000000000000000000000000bf
:2014d1000000000000000000000000000000000000000000000000000000000000000000fb
:1614f10000000000000000000000000000000000000000000000e5
:201507000000000000c3000000000000000000000000000000000000000000000000000001
:201527000000000000000000000000000000000000000000000000000000000000000000a4
:1715470000000000000000000000000000000000000000000000008d
:20155e00000000000c30200000000000000000000000000000000000000000000000000011
:20157e0000000000000000000000000000000000000000000000000000000000000000004d
:16159e000000000000000000000000000000000000000000000037
:2015b4000000000000c3000000000000000000000000000000000000000000000000000054
:2015d4000000000000000000000000000000000000000000000000000000000000000000f7
:1715f4000000000000000000000000000000000000000000000000e0
:20160b00000000000c30200000000000000000000000000000000000000000000000000063
:20162b0000000000000000000000000000000000000000000000000000000000000000009f
:16164b000000000000000000000000000000000000000000000089
:201661000000000000c30000000000000000000000000000000000000000000000000000a6
:20168100000000000000000000000000000000000000000000000000000000000000000049
:1716a100000000000000000000000000000000000000000000000032
:2016b800000000000c302000000000000000000000000000000000000000000000000000b6
:2016d8000000000000000000000000000000000000000000000000000000000000000000f2
:1616f80000000000000000000000000000000000000000000000dc
:20170e000000000000c30000000000000000000000000000000000000000000000000000f8
:20172e0000000000000000000000000000000000000000000000000000000000000000009b
:17174e00000000000000000000000000000000000000000000000084
:20176500000000000c30200000000000000000000000000000000000000000000000000008
:20178500000000000000000000000000000000000000000000000000000000000000000044
:1617a500000000000000000000000000000000000000000000002e
:2017bb000000000000c300000000000000000000000000000000000000000000000000004b
:2017db000000000000000000000000000000000000000000000000000000000000000000ee
:1717fb000000000000000000000000000000000000000000000000d7
:20181200000000000c3020000000000000000000000000000000000000000000000000005a
:20183200000000000000000000000000000000000000000000000000000000000000000096
:161852000000000000000000000000000000000000000000000080
:201868000000000000c300000000000000000000000000000000000000000000000000009d
:20188800000000000000000000000000000000000000000000000000000000000000000040
:1718a800000000000000000000000000000000000000000000000029
:2018bf00000000000c302000000000000000000000000000000000000000000000000000ad
:2018df000000000000000000000000000000000000000000000000000000000004000000e5
:1618ff0000000000000000000000000000000000000000000000d3
:201915000000000000c30000000000000000000000000000000000000000000000000000ef
:20193500000000000000000000000000000000000000000000000000000000000000000092
:1719550000000000000000000000000000000000000000000000007b
:20196c00000000000c302000000000000000000000000000000000000000000000000000ff
:20198c00000000000000000000000000000000000000000000000000000000000400000037
:1619ac000000000000000000000000000000000000000000000025
:2019c2000000000000c3000000000000000000000000000000000000000000000000000042
:2019e2000000000000000000000000000000000000000000000000000000000000200000c5
:171a02000000000000000000000000000000000000000000000000cd
:201a1900000000000c30200000000000000000000000000000000000000000000000000051
:201a390000000000000000000000000000000000000000000000000000000000000000008d
:161a59000000000000000000000000000000000000000000000077
:201a6f000000000000c3000000000000000000000000000000000000000000000000000094
:201a8f00000000000000000000000000000000000000000000000000000000000000000037
:171aaf00000000000000000000000000000000000000000000000020
:201ac600000000000c302000000000000000000000000000000000000000000000000000a4
:201ae6000000000000000000000000000000000000000000000000000000000000000000e0
:161b060000000000000000000000000000000000000000000000c9
:201b1c000000000000c30000000000000000000000000000000000000000000000000000e6
:201b3c00000000000000000000000000000000000000000000000000000000000000000089
:171b5c00000000000000000000000000000000000000000000000072
:201b7300000000000000000000000000000000000000000000000000000000000000000052
:201b9300000000000000000000000000000000000000000000000000000000000000000032
:161fc10000000000000000000000000000000000100000000000fa
:201fd7000000000000000000000000000000000000000000000000000000000000000000ea
:201ff7000000000000000000000000000000000000000000000000000000000000000000ca
:172017000000000000000000000000000000000000000000000000b2
:20202e00000000000000000000000000000000000000000000000000000000000000000092
:20204e00000000000000000000000000000000000000000000000000000000000000000072
:16206e00000000000000000000000000000000000000000000005c
:2020840000000000000000000000000000000000000000000000000000000000000000003c
:2020a40000000000000000000000000000000000000000000000000000000000000000001c
:1720c400000000000000000000000000000000000000000000000005
:2020db000000000000000000000000000000000000000000000000000000000000000000e5
:2020fb000000000000000000000000000000000000000000000000000000000000000000c5
:16211b0000000000000000000000000000000000000000000000ae
:2021310000000000000000000000000000000000000000000000000000000000000000008e
:2021510000000000000000000000000000000000000000000000000000000000000000006e
:17217100000000000000000000000000000000000000000000000057
:20218800000000000000000000000000000000000000000000000000000000000000000037
:2021a800000000000000000000000000000000000000000000000000000000000000000017
:1621c8000000000000000000000000000000000000000000000001
:2021de000000000000000000000000000000000000000000000000000000000000000000e1
:2021fe000000000000000000000000000000000000000000000000000000000000000000c1
:17221e000000000000000000000000000000000000000000000000a9
:20223500000000000000004000000000000000000000000000000000000000000000000049
:20225500000000000000000000000000000000000000000000000000000000000000000069
:1622750000000000000000000000000000000000a00000000000b3
:20228b00000000000000000000000000000000000000000000000000000000000000000033
:2022ab00000000000000000000000000000000000000000000000000000000000000000013
:1722cb000000000000000000000000000000000004000000000000f8
:2022e2000000000000000000000000000000000000000000000000000000000000000000dc
:202302000000000000000000000000000000000000000000000000000000000000000000bb
:1623220000000000000000000000000000000000000000000000a5
:20233800000000000000000000000000000000000000000000000000000000000000000085
:20235800000000000000000000000000000000000000000000000000000000000000000065
:1723780000000000000000000000000000000000000000000000004e
:20238f0000000000000000000000000000000000000000000000000000000000000000002e
:2023af00000000000000000000000000000000000000000000000000000000080000000006
:1623cf0000000000000000000000000000000000000000000000f8
:2023e5000000000000000000000000000000000000000000000000000000000000000000d8
:202405000000000000000000000000000000000000000000000000000000000000000000b7
:172425000000000000000000000000000000000000000000000000a0
:20243c00000000000000000000000000000000000000000000000000000000000000000080
:20245c00000000000000000000000000000000000000000000000000000000000000000060
:16247c00000000000000000000000000000000000000000000004a
:2024920000000000000000000000000000000000000000000000000000000000000000002a
:2024b20000000000000000000000000000000000000000000000000000000000000000000a
:1724d2000000000000000000000000000000000000000000000000f3
:2024e9000000000000000000000000000000000000000000000000000000000000000000d3
:202509000000000000000000000000000000000000000000000000000000000000000000b2
:16252900000000000000000000000000000000000000000000009c
:20253f0000000000000000000000000000000000000000000000000000000000000000007c
:20255f0000000000000000000000000000000000000000000000000000000000000000005c
:17257f00000000000000000000000000000000000000000000000045
:20259600000000000000000000000000000000000000000000000000000000000000000025
:2025b600000000000000000000000000000000000000000000000000000000000000000005
:1625d60000000000000000000000000000000000000000000000ef
:2025ec000000000000000000000000000000000000000000000000000000000000000000cf
:20260c000000000000000000000000000000000000000000000000000000000000000000ae
:17262c00000000000000000000000000000000000000000000000097
:20264300000000000000000000000000000000000000000000000000000000000000000077
:20266300000000000000000000000000000000000000000000000000000000000000000057
:162683000000000000000000000000000000000000000000000041
:20269900000000000000000000000000000000000000000000000000000000000000000021
:2026b900000000000000000000000000000000000000000000000000000000000000000001
:1726d9000000000000000000000000000000000000000000000000ea
:2026f0000000000000000000000000000000000000000000000000000000000000000000ca
:202710000000000000000000000000000000000000000000000000000000000000000000a9
:16273000000000000000000000000000000000000004000000008f
:20274600000000000000000000000000000000000000000000000000000000000000000073
:20276600000000000000000000000000000000000000000000000000000000000000000053
:1727860000000000000000000000000000000000000000000000003c
:20279d0000000000000000000000000000000000000000000000000000000000000000001c
:2027bd000000000000000000000000000000000000000000000000000000000000000000fc
:1627dd000000000000000000000000000000000000006000000086
:2027f3000000000000000000000000000000000000000000000000000000000000000000c6
:202813000000000000000000000000000000000000000000000000000000000000000000a5
:1728330000000000000000000000000000000000000000000000008e
:20284a0000000000000000000000000000000000000000000000000000000000000000006e
:20286a0000000000000000000000000000000000000000000000000000000000000000004e
:16288a0000000000000000000000000000000000001c035aa0001f
:2028a000000000000000000000000000000000000000000000000000000000000000000018
:2028c0000000000000000000000000000000000000000000000000000000000000000000f8
:1728e00000000000000000000000000000000000000020060f52005a
:2028f7000000000000000000000000000000000000000000000000000000000000000000c1
:202917000000000000000000000000000000000000000000000000000000000000000000a0
:162937000000000000000000000000000000000400000000000086
:20294d0000000000000000000000000000000000000000000000000000000000000000006a
:20296d0000000000000000000000000000000000000000000000000000000000000000004a
:17298d0000000000000000000000000000000000c000000000000073
:2029a400000000000000000000000000000000000000000000000000000000000000000013
:2029c4000000000000000000000000000000000000000000000000000000000000000000f3
:1629e40000000000000000000000000000000000000000000000dd
:2029fa000000000000000000000000000000000000000000000000000000000000000000bd
:202a1a0000000000000000000000000000000000000000000000000000000000000000009c
:172a3a00000000000000000000000000000000000000000000000085
:202a5100000000000000000000000000000000000000000000000000000000000000000065
:202a710000000000000000000000000000000000000000000000000000000000380000000d
:162a9100000000000000000000000000000000000000000000002f
:202aa70000000000000000000000000000000000000000000000000000000000000000000f
:202ac7000000000000000000000000000000000000000000000000000000000000000000ef
:172ae7000000000000000000000000000000000000000000000000d8
:202afe000000000000000000000000000000000000000000000000000000000000000000b8
:202b1e00000000000000000000000000000000000000000000000000000000000000000097
:162b3e000000000000000000000000000000000000000000000081
:202b5400000000000000000000000000000000000000000000000000000000000000000061
:202b7400000000000000000000000000000000000000000000000000000000000000000041
:172b940000000000000000000000000000000000000000000000002a
:202bab0000000000000000000000000000000000000000000000000000000000000000000a
:202bcb000000000000000000000000000000000000000000000000000000000002000000e8
:162beb0000000000000000000000000000000000000000000000d4
:202c01000000000000000000000000000000000000000000000000000000000000000000b3
:202c2100000000000000000000000000000000000000000000000000000000000050000043
:172c410000000000000000000000000000000000000000000000007c
:202c580000000000000000000000000000000000000000000000000000000000000000005c
:202c780000000000000000000000000000000000000000000000000000000000000000003c
:162c98000000000000000000000000000000000000000000000026
:202cae00000000000000000000000000000000000000000000000000000000000000000006
:202cce000000000000000000000000000000000000000000000000000000000000000000e6
:172cee000000000000000000000000000000000000000000000000cf
:202d05000000000000000000000000000000000000000000000000000000000000000000ae
:202d250000000000000000000000000000000000000000000000000000000000000000008e
:162d45000000000000000000000000000000000000000000000078
:202d5b00000000000000000000000000000000000000000000000000000000000000000058
:202d7b00000000000000000000000000000000000000000000000000000000000000000038
:172d9b00000000000000000000000000000000000000000000000021
:202db200000000000000000000000000000000000000000000000000000000000000000001
:202dd2000000000000000000000000000000000000000000000000000000000000000000e1
:162df20000000000000000000000000000000000000000000000cb
:202e08000000000000000000000000000000000000000000000000000000000000000000aa
:202e280000000000000000000000000000000000000000000000000000000000000000008a
:172e4800000000000000000000000000000000000000000000000073
:202e5f00000000000000000000000000000000000000000000000000000000000000000053
:202e7f0000000000000000000000000000000000000000000000000000000004000000002f
:162e9f00000000000000000000000000000000000000000000001d
:202eb5000000000000000000000000000000000000000000000000000000000000000000fd
:202ed50000000000000000000000000000000000000000000000000000000000400000009d
:172ef5000000000000000000000000000000000000000000000000c6
:202f0c000000000000000000000000000000000000000000000000000000000000000000a5
:202f2c00000000000000000000000000000000000000000000000000000000000000000085
:162f4c00000000000000000000000000000000000000000000006f
:202f620000000000000000000000000000000000000000000000000000000000000000004f
:202f820000000000000000000000000000000000000000000000000000000000000000002f
:172fa200000000000000000000000000000000000000000000000018
:202fb9000000000000000000000000000000000000000000000000000000000000000000f8
:202fd9000000000000000000000000000000000000000000000000000000000000000000d8
:162ff90000000000000000000000000000000000000000000000c2
:20300f000000000000000000000000000000000000000000000000000000000000000000a1
:20302f00000000000000000000000000000000000000000000000000000000000000000081
:17304f0000000000000000000000000000000000000000000000006a
:2030660000000000000000000000000000000000000000000000000000000000000000004a
:2030860000000000000000000000000000000000000000000000000000000000000000002a
:1630a6000000000000000000000000000000000000000000000014
:2030bc000000000000000000000000000000000000000000000000000000000000000000f4
:2030dc000000000000000000000000000000000000000000000000000000000000000000d4
:1730fc000000000000000000000000000000000000000000000000bd
:20311300000000000c30200000000000000000000000000000000000000000000000000040
:2031330000000000000000000000000000000000000000000000000000000000000000007c
:163153000000000000000000000000000000000000000000000066
:203169000000000000c3000000000000000000000000000000000000000000000000000083
:20318900000000000000000000000000000000000000000000000000000000000000000026
:1731a90000000000000000000000000000000000000000000000000f
:2031c000000000000c30200000000000000000000000000000000000000000000000000093
:2031e0000000000000000000000000000000000000000000000000000000000000000000cf
:1632000000000000000000000000000000000000000000000000b8
:203216000000000000c30000000000000000000000000000000000000000000000000000d5
:20323600000000000000000000000000000000000000000000000000000000000000000078
:17325600000000000000000000000000000000000000000000000061
:20326d00000000000c302000000000000000000000000000000000000000000000000000e5
:20328d0000000000000000000000000000000000000000000000000000000004000000001d
:1632ad00000000000000000000000000000000000000000000000b
:2032c3000000000000c3000000000000000000000000000000000000000000000000000028
:2032e30000000000000000000000000000000000000000000000000000000000400000008b
:173303000000000000000000000000000000000000000000000000b3
:20331a00000000000c30200000000000000000000000000000000000000000000000000037
:20333a00000000000000000000000000000000000000000000000000000000000000000073
:16335a00000000000000000000000000000000000000000000005d
:203370000000000000c300000000000000000000000000000000000000000000000000007a
:2033900000000000000000000000000000000000000000000000000000000000000000001d
:1733b000000000000000000000000000000000000000000000000006
:2033c700000000000c3020000000000000000000000000000000000000000000000000008a
:2033e7000000000000000000000000000000000000000000000000000000000000000000c6
:1634070000000000000000000000000000000000000000000000af
:20341d000000000000c30000000000000000000000000000000000000000000000000000cc
:20343d0000000000000000000000000000000000000000000000000000000000000000006f
:17345d00000000000000000000000000000000000000000000000058
:20347400000000000c302000000000000000000000000000000000000000000000000000dc
:20349400000000000000000000000000000000000000000000000000000000000000000018
:1634b4000000000000000000000000000000000000000000000002
:2034ca000000000000c300000000000000000000000000000000000000000000000000001f
:2034ea000000000000000000000000000000000000000000000000000000000000000000c2
:17350a000000000000000000000000000000000000000000000000aa
:20352100000000000c3020000000000000000000000000000000000000000000000000002e
:2035410000000000000000000000000000000000000000000000000000000000000000006a
:163561000000000000000000000000000000000000000000000054
:203577000000000000c3000000000000000000000000000000000000000000000000000071
:20359700000000000000000000000000000000000000000000000000000000000000000014
:1735b7000000000000000000000000000000000000000000000000fd
:2035ce00000000000c30200000000000000000000000000000000000000000000000000081
:2035ee000000000000000000000000000000000000000000000000000000000000000000bd
:16360e0000000000000000000000000000000000000000000000a6
:203624000000000000c30000000000000000000000000000000000000000000000000000c3
:20364400000000000000000000000000000000000000000000000000000000000000000066
:1736640000000000000000000000000400000000000000000000004b
:20367b0000000000000000000000000000000000000000000000000000000000000000002f
:20369b0000000000000000000000000000000000000000000000000000000000000000000f
:1636bb0000000000000000000000000000000000000000000000f9
:2036d1000000000000000000000000000000000000000000000000000000000000000000d9
:204c1b00000000000c3020000000000000000000000000000000000000000000000000001d
:204c3b00000000000000000000000000000000000000000000000000000000000000000059
:164c5b000000000000000000000000000000000000000000000043
:204c71000000000000c3000000000000000000000000000000000000000000000000000060
:204c9100000000000000000000000000000000000000000000000000000000000000000003
:174cb1000000000000000000000000000000000000000000000000ec
:204cc800000000000c30200000000000000000000000000000000000000000000000000070
:204ce8000000000000000000000000000000000000000000000000000000000000000000ac
:164d08000000000000000000000000000000000000000000000095
:204d1e000000000000c30000000000000000000000000000000000000000000000000000b2
:204d3e00000000000000000000000000000000000000000000000000000000000000000055
:174d5e0000000000000000000000000000000000000000000000003e
:204d7500000000000c30204000000000000000000000000000000000000000000000000082
:204d95000000000000000000000000000000000000000000000000000000000000000000fe
:164db50000000000000000000000000000000000000000000000e8
:204dcb000000000000c3000000000000000000000000000000000000000000000000000005
:204deb000000000000000000000000000000000000000000000000000000000000000000a8
:174e0b00000000000000000000000000000000000000000000000090
:204e2200000000000c30200000000000000000000000000000000000000000000000000014
:204e4200000000000000000000000000000000000000000000000000000000000000000050
:164e6200000000000000000000000000000000000000000000003a
:204e78000000000000c3000000000000000000000000000000000000000000000000000057
:204e98000000000000000000000000000000000000000000000000000000000000000000fa
:174eb8000000000000000000000000000000000000000000000000e3
:204ecf00000000000c30200000000000000000000000000000000000000000000000000067
:204eef000000000000000000000000000000000000000000000000000000000000000000a3
:164f0f00000000000000000000000000000000000000000000008c
:204f25000000000000c30000000000000000000000000000000000000000000000000000a9
:204f450000000000000000000000000000000000000000000000000000000000000000004c
:174f6500000000000000000000000000000000000000000000000035
:204f7c00000000000c302000000000000000000000000000000000000000000000000000b9
:204f9c000000000000000000000000000000000000000000000000000000000000000000f5
:164fbc0000000000000000000000000000000000000000000000df
:204fd2000000000000c30000000000000000000000000000000000000000000000000000fc
:204ff20000000000000000000000000000000000000000000000000000000000000000009f
:17501200000000000000000000000000000000000000000000000087
:20502900000000000c3020000000000000000000000000000000000000000000000000000b
:20504900000000000000000000000000000000000000000000000000000000000000000047
:1650690000000000000000000080000000000000000000000000b1
:20507f000000000000c300000000000000000000000000000000000000000000000000004e
:20509f000000000000000000000000000000000000000000000000000000000000000000f1
:1750bf000000000000000000000000000000000000000000000000da
:2050d600000000000c3020000000000000000000000000000000000000000000000000005e
:2050f60000000000000000000000000000000000000000000000000000000000000000009a
:165116000000000000000000000000000000000000000000000083
:20512c000000000000c30000000000000000000000000000000000000000000000000000a0
:20514c00000000000000000000000000000000000000000000000000000000000000000043
:17516c0000000000000000000000000000000000000000000000002c
:2051830000000000000000000000000000000000000000000000000000000000000000000c
:2051a3000000000000000000000000000000000000000000000000000000000000000000ec
:2061bb00000000000000004000000000000000000000000000000000000000000000000084
:2061db000000000000000000000000000000000000000000000000000000000000000000a4
:1661fb00000000000000000000000000000000000000000000008e
:2062110000000000000000000000000000000000000000000000000000000000000000006d
:2062310000000000000000000000000000000000000000000000000000000000000000004d
:20672300000000000c302000000000000000000000000000000000000000000000000000fa
:20674300000000000000000000000000000000000000000000000000000000000000000036
:166763000000000000000000000000000000000000000000000020
:206779000000000000c300000000000000000000000000000000000000000000000000003d
:206799000000000000000000000000000000000000000000000000000000000000000000e0
:1767b9000000000000000000000000000000000000000000000000c9
:2067d000000000000c3020000000000000000000000000000000000000000000000000004d
:2067f000000000000000000000000000000000000000000000000000000000000000000089
:166810000000000000000000000000000000000000000000000072
:206826000000000000c300000000000000000000000000000000000000000000000000008f
:20684600000000000000000000000000000000000000000000000000000000000000000032
:1768660000000000000000000000000000000000000000000000001b
:20687d00000000000c3020000000000000000000000000000000000000000000000000009f
:20689d000000000000000000000000000000000000000000000000000000000000000000db
:1668bd0000000000000000000000000000000000000000000000c5
:2068d3000000000000c30000000000000000000000000000000000000000000000000000e2
:2068f300000000000000000000000000000000000000000000000000000000000000000085
:1769130000000000000000000000000000000000000000000000006d
:20692a00000000000c302000000000000000000000000000000000000000000000000000f1
:20694a0000000000000000000000000000000000000000000000000000000000000000002d
:16696a000000000000000000000000000000000000000000000017
:206980000000000000c3000000000000000000000000000000000000000000000000000034
:2069a0000000000000000000000000000000000000000000000000000000000000000000d7
:1769c0000000000000000000000000000000000000000000000000c0
:2069d700000000000c30200000000000000000000000000000000000000000000000000044
:2069f700000000000000000000000000000000000000000000000000000000000000000080
:166a17000000000000000000000000000000000000000000000069
:206a2d000000000000c3000000000000000000000000000000000000000000000000000086
:206a4d00000000000000000000000000000000000000000000000000000000000000000029
:176a6d00000000000000000000000000000000000000000000000012
:206a8400000000000c30200000000000000000000000000000000000000000000000000096
:206aa4000000000000000000000000000000000000000000000000000000000000000000d2
:166ac40000000000000000000000000000000000000000000000bc
:206ada000000000000c30000000000000000000000000000000000000000000000000000d9
:206afa0000000000000000000000000000000000000000000000000000000000000000007c
:176b1a00000000000000000000000000000000000000000000000064
:206b3100000000000c302000000000000000000000000000000000000000000000000000e8
:206b5100000000000000000000000000000000000000000000000000000000000000000024
:166b7100000000000000000000000000000000000000000000000e
:206b87000000000000c300000000000000000000000000000000000000000000000000002b
:206ba7000000000000000000000000000000000000000000000000000000000000000000ce
:176bc7000000000000000000000000000000000000000000000000b7
:206bde00000000000c3020000000000000000000000000000000000000000000000000003b
:206bfe00000000000000000000000000000000000000000000000000000000000000000077
:166c1e000000000000000000000000000000000000000000000060
:206c34000000000000c300000000000000000000000000000000000000000000000000007d
:206c5400000000000000000000000000000000000000000000000000000000000000000020
:176c7400000000000000000000000000000000000000000000000009
:206c8b00000000000c3020000000000000000000000000000000000000000000000000008d
:206cab000000000000000000000000000000000000000000000000000000000000000000c9
:166ccb0000000000000000000000000000000000000000000000b3
:206ce1000000000000c30000000000000000000000000000000000000000000000000000d0
:206d0100000000000000000000000000000000000000000000000000000000000000000072
:176d210000000000000000000000000000000000000000000000005b
:206d3800000000000c302000000000000000000000000000000000000000000000000000df
:206d580000000000000000000000000000000000000000000000000000000000000000001b
:166d78000000000000000000000000000000000000000000000005
:206d8e000000000000c3000000000000000000000000000000000000000000000000000022
:206dae000000000000000000000000000000000000000000000000000000000000000000c5
:176dce000000000000000000000000000000000000000000000000ae
:206de500000000000c30200000000000000000000000000000000000000000000000000032
:206e050000000000000000000000000000000000000000000000000000000000000000006d
:166e25000000000000000000000000000000000000000000000057
:206e3b000000000000c3000000000000000000000000000000000000000000000000000074
:206e5b00000000000000000000000000000000000000000000000000000000000000000017
:176e7b00000000000000000000000000000000000000000000000000
:206e9200000000000c30200000000000000000000000000000000000000000000000000084
:206eb2000000000000000000000000000000000000000000000000000000000000000000c0
:166ed20000000000000000000000000000000000000000000000aa
:206ee8000000000000c30000000000000000000000000000000000000000000000000000c7
:206f0800000000000000000000000000000000000000000000000000000000000000000069
:176f2800000000000000000000000000000000000000000000000052
:206f3f00000000000c302000000000000000000000000000000000000000000000000000d6
:206f5f00000000000000000000000000000000000000000000000000000000000000000012
:166f7f0000000000000000000000000000000000000000000000fc
:206f95000000000000c3000000000000000000000000000000000000000000000000000019
:206fb5000000000000000000000000000000000000000000000000000000000000000000bc
:176fd5000000000000000000000000000000000000000000000000a5
:206fec00000000000c30200000000000000000000000000000000000000000000000000029
:20700c00000000000000000000000000000000000000000000000000000000000000000064
:16702c00000000000000000000000000000000000000000000004e
:207042000000000000c300000000000000000000000000000000000000000000000000006b
:2070620000000000000000000000000000000000000000000000000000000000000000000e
:177082000000000000000000000000000000000000000000000000f7
:20709900000000000c3020000000000000000000000000000000000000000000000000007b
:2070b9000000000000000000000000000000000000000000000000000000000000000000b7
:1670d90000000000000000000000000000000000000000000000a1
:2070ef000000000000c30000000000000000000000000000000000000000000000000000be
:20710f00000000000000000000000000000000000000000000000000000000000000000060
:17712f00000000000000000000000000000000000000000000000049
:20714600000000000c302000000000000000000000000000000000000000000000000000cd
:20716600000000000000000000000000000000000000000000000000000000000000000009
:1671860000000000000000000000000000000000000000000000f3
:20719c000000000000c3000000000000000000000000000000000000000000000000000010
:2071bc000000000000000000000000000000000000000000000000000000000000000000b3
:1771dc0000000000000000000000000000000000000000000000019b
:0271f30000009a
:0371f5007200b075
:0271f800110183
:0271fa00010191
:2071fc0000000000000000000000001000000000000040000000000001000000000000041e
:20721c000000000000001000000000000040000000001000000000000040000000000001b1
:16723c000000000000000400000000000010000000000000000028
:207252000000000000000000000000020000000000000800000000000020000000000000f2
:20727200800000000000020000000000000800000000020000000000000800000000000068
:1772920020000000000000800000000000020000000000000800003b
:2072a9000000000000000000000000000000000000000000000000000000000000000000c5
:2072c9000000000000000000000000000000000000000000000000000000000000000000a5
:1672e900000000000000000000000000000000004000000000004f
:2072ff0000000000000000000000000000000000000000000000000000000000000000006f
:20731f0000000000000000000000000000000000000000000000000000000000000000004e
:17733f00000000000000000000000000000000000000000000000037
:20735600000000000000000000000000000000000000000000000000000000000000000017
:207376000000000000000000000000000000000000000000000000000000000000000000f7
:1673960000000000000000000000000000000000000000000000e1
:2073ac000000000000000000000000000000000000000000000000000000000000000000c1
:2073cc000000000000000000000000000000000000000000000000000000000000000000a1
:1773ec0000000000000000000000000000000000000000000000008a
:20740300000000000000000000000000000000000000000000000000000000000000000069
:20742300000000000000000000000000000000000000000000000000000000000000000049
:167443000000000000000000000000000000000000000100000032
:20745900000000000000000000000000000000000000000000000000000000000000000013
:207479000000000000000000000000000000000000000000000000000000000000000000f3
:177499000000000000000000000000000000000000000000000000dc
:2074b0000000000000000000000000000000000000000000000000000000000000000000bc
:2074d00000000000000000000000000000000000000000000000000000000000000000009c
:1674f0000000000000000000000000000000000000000200000084
:20750600000000000000000000000000000000000000000000000000000000000000000065
:20752600000000000000000000000000000000000000000000000000000000000000000045
:1775460000000000000100000000000000000000000000000000002d
:20755d0000000000000000000000000000000000000000000000000000000000000000000e
:20757d000000000000000000000000000000000000000000000000000000000000000000ee
:16759d000000000000100000000000004000000000000000000088
:2075b3000000000000000000000000000000000000000000000000000000000000000000b8
:2075d300000000000000000000000000000000000000000000000000000000000000000098
:1775f30000000000000300000000000000000000000000000c000072
:20760a00000000000000000000000000000000000000000000000000000000000000000060
:20762a00000000000000000000000000000000000000000000000000000000000000000040
:16764a000000000000100000000000004000000000018000000059
:2076600000000000000000000000000000000000000000000000000000000000000000000a
:207680000000000000000000000000000000000000000000000000000000000000000000ea
:1776a0000000000000000000000000000000000000000800000000cb
:2076b7000000000000000000000000000000000000000000000000000000000000000000b3
:2076d700000000000000000000000000000000000000000000000000000000000000000093
:1676f700000000000000000000000000000000000000000000007d
:20770d0000000000000000000000000000000000000000000000000000000000000000005c
:20772d0000000000000000000000000000000000000000000000000000000000000000003c
:17774d0000000000000000000000000008000000000000000000001d
:20776400000000000c300000000000000000000000000000000000000000000000000000c9
:207784000000000000000000000000000000000000000000000000000000000000000000e5
:1677a40000000000000000000000000000000000000000000000cf
:2077ba000000000000c30200000000000000000000000000000000000000000000000000ea
:2077da0000000000000000000000000000000000000000000000000000000000000000008f
:1777fa00000000000000000000000000000000000000000000000078
:20781100000000000c3000000000000000000000000000000000000000000000000000001b
:20783100000000000000000000000000000000000000000000000000000000000000000037
:167851000000000000000000000000000000000000000000000021
:207867000000000000c302000000000000000000000000000000000000000000000000003c
:207887000000000000000000000000000000000000000000000000000000000000000000e1
:1778a7000000000000000000000000000000000000000000000000ca
:2078be00000000000c3000000000000000000000000000000000000000000000000000006e
:2078de0000000000000000000000000000000000000000000000000000000000000000008a
:1678fe000000000000000000000000000000000000000000000074
:207914000000000000c302000000000000000000000000000000000000000000000000008e
:20793400000000000000000000000000000000000000000000000000000000000000000033
:1779540000000000000000000000000000000000000000000000001c
:20796b00000000000c30000000800000000000000000000000000000000000000000000040
:20798b000000000000000000000000000000000000000000000000000000000000000000dc
:1679ab000000000000000000000000000000000c000000000000ba
:2079c1000000000000c3020000500000000000000000000000000000000000000000000091
:2079e100000000000000000000000000000000000000000000000000000000000000000086
:177a010000000000000000000000000000000000400000000000002e
:207a1800000000000c30000000000000000000000000000000000000000000000000000012
:207a380000000000000000000000000000000000000000000000000000000000000000002e
:167a58000000000000000000000000000000000000000040a50033
:207a6e000000000000c3020000000000000000000000000000000000000000000000000033
:207a8e000000000000000000000000000000000000000000000000000000000000000000d8
:177aae00000000000000000000000000000000000000002005a000fc
:207ac500000000000c30000000000000000000000000000000000000000000000000000065
:207ae500000000000000000000000000000000000000000000000000000000000000000081
:167b0500000000000000000000000000000000000000000000006a
:207b1b000000000000c3020000000000000000000000000000000000000000000000000085
:207b3b0000000000000000000000000000000000000000000000000000000000000000002a
:177b5b00000000000000000000000000000000000000000000000013
:207b7200000000000c300000000000000000000000000000000000000000000000000000b7
:207b92000000000000000000000000000000000000000000000000000000000000000000d3
:167bb20000000000000000000000000000000000000000000000bd
:207bc8000000000000c30200000000000000000000000000000000000000000000000000d8
:207be80000000000000000000000000000000000000000000000000000000000000000007d
:177c0800000000000000000000000000000000000000400000000025
:207c1f00000000000c3000000000003c0000000000000000000000000000000000000000cd
:207c3f00000000000000000000000000000000000000000000000000000000000000000025
:167c5f00000000000000000000000000000000000000000000000f
:207c75000000000000c3020000000033c00600000000000000000000000000000000000031
:207c95000000000000000000000000000000000000000000000000000000000000000000cf
:177cb5000000000000000000000000000000000000000000000000b8
:207ccc00000000000c3000000000000000000000000000000000000000000000000000005c
:207cec00000000000000000000000000000000000000000000000000000000000000000078
:167d0c000000000000000000000000000000000000000000000061
:207d22000000000000c302000000000000000000000000000000000000000000000000007c
:207d4200000000000000000000000000000000000000000000000000000000000000000021
:177d620000000000000000000000000000000000000000000000000a
:207d7900000000000c300000000000000000000000000000000000000000000000000000ae
:207d99000000000000000000000000000000000000000000000000000000000000000000ca
:167db90000000000000000000000000000000000000000000000b4
:207dcf000000000000c30200000000000000000000000000000000000000000000000000cf
:207def00000000000000000000000000000000000000000000000000000000000000000074
:177e0f0000000000000000000000000000000000000000000000005c
:207e2600000000000c30000000000000000000000000000000000000000000000000000000
:207e460000000000000000000000000000000000000000000000000000000000000000001c
:167e66000000000000000000000000000000000000000000000006
:207e7c000000000000c3020000000000000000000000000000000000000000000000000021
:207e9c000000000000000000000000000000000000000000000000000000000000000000c6
:177ebc000000000000000000000000000000000000000000000000af
:207ed300000000000c30000000000000000000000000000000000000000000000000000053
:207ef30000000000000000000000000000000000000000000000000000000000000000006f
:167f13000000000000000000000000000000000000000000000058
:207f29000000000000c3020000000000000000000000000000000000000000000000000073
:207f4900000000000000000000000000000000000000000000000000000000000000000018
:177f6900000000000000000000000000000000000000000000000001
:207f8000000000000c300000000000000000000000000000000000000000000000000000a5
:207fa0000000000000000000000000000000000000000000000000000000000000000000c1
:167fc00000000000000000000000000000000000000000000000ab
:207fd6000000000000c30200000000000000000000000000000000000000000000000000c6
:207ff60000000000000000000000000000000000000000000000000000000000000000006b
:17801600000000000000000000000000000000000000000000000053
:20802d00000000000c300000000000000000000000000000000000000000000000000000f7
:20804d00000000000000000000000000000000000000000000000000000000000000000013
:16806d0000000000000000000000000000000000000000000000fd
:208083000000000000c3020000000000000000000000000000000000000000000000000018
:2080a3000000000000000000000000000000000000000000000000000000000000000000bd
:1780c3000000000000000000000000000000000000000000000000a6
:2080da00000000000c3000000000000000000000000000000000000000000000000000004a
:2080fa00000000000000000000000000000000000000000000000000000000000000000066
:16811a00000000000000000000000000000000000000000000004f
:208130000000000000c302000000000000000000000000000000000000000000000000006a
:2081500000000000000000000000000000000000000000000000000000000000000000000f
:178170000000000000000000000000000000000000000000000000f8
:20818700000000000c3000000000000000000000000000000000000000000000000000009c
:2081a7000000000000000000000000000000000000000000000000000000000000000000b8
:1681c70000000000000000000000000000000000000000000000a2
:2081dd000000000000c30200000000000000000000000000000000000000000000000000bd
:2081fd00000000000000000000000000000000000000000000000000000000000000000062
:17821d0000000000000000000000000000000000000000000000004a
:20823400000000000c300000000000000000000000000000000000000000000000000000ee
:2082540000000000000000000000000000000000000000000000000000000000000000000a
:1682740000000000000000000000000000000000000000000000f4
:20828a000000000000c302000000000000000000000000000000000000000000000000000f
:2082aa000000000000000000000000000000000000000000000000000000000000000000b4
:1782ca0000000000000000000000000000000000000000000000009d
:2082e100000000000c30000000000000000000000000000000000000000000000000000041
:2083010000000000000000000000000000000000000000000000000000000000000000005c
:168321000000000000000000000000000000000000000000000046
:208337000000000000c3020000000000000000000000000000000000000000000000000061
:20835700000000000000000000000000000000000000000000000000000000000000000006
:178377000000000000000000000000000000000000000000000000ef
:20838e00000000000c30000000000000000000000000000000000000000000000000000093
:2083ae000000000000000000000000000000000000000000000000000000000000000000af
:1683ce000000000000000000000000000000000000000000000099
:2083e4000000000000c30200000000000000000000000000000000000000000000000000b4
:20840400000000000000000000000000000000000000000000000000000000000000000058
:17842400000000000000000000000000000000000000000000000041
:20843b00000000000c300000000000000000000000000000000000000000000000000000e5
:20845b00000000000000000000000000000000000000000000000000000000000000000001
:16847b0000000000000000000000000000000000000000000000eb
:208491000000000000c3020000000000000000000000000000000000000000000000000006
:2084b1000000000000000000000000000000000000000000000000000000000000000000ab
:1784d100000000000000000000000000000000000000000000000094
:2084e800000000000c30000000000000000000000000000000000000000000000000000038
:20850800000000000000000000000000000000000000000000000000000000000000000053
:16852800000000000000000000000000000000000000000000003d
:20853e000000000000c3020000000000000000000000000000000000000000000000000058
:20855e000000000000000000000000000000000000000000000000000000000000000000fd
:17857e000000000000000000000000000000000000000000000000e6
:20859500000000000c3000000000000000000000000000000000000000000000000000008a
:2085b5000000000000000000000000000000000000000000000000000000000000000000a6
:1685d5000000000000000000000000000000000000000000000090
:2085eb000000000000c30200000000000000000000000000000000000000000000000000ab
:20860b0000000000000000000000000000000000000000000000000000000000000000004f
:17862b00000000000000000000000000000000000000000000000038
:20864200000000000c300000000000000000000000000000000000000000000000000000dc
:208662000000000000000000000000000000000000000000000000000000000000000000f8
:1686820000000000000000000000000000000000000000000000e2
:208698000000000000c30200000000000000000000000000000000000000000000000000fd
:2086b8000000000000000000000000000000000000000000000000000000000000000000a2
:1786d80000000000000000000000000000000000000000000000008b
:2086ef00000000000c3000000000000000000000000000000000000000000000000000002f
:20870f0000000000000000000000000000000000000000000000000000000000000000004a
:16872f000000000000000000000000000000000000000000000034
:208745000000000000c302000000000000000000000000000000000000000000000000004f
:208765000000000000000000000000000000000000000000000000000000000000000000f4
:178785000000000000000000000000000000000000000000000000dd
:20879c00000000000c30000000000000000000000000000000000000000000000000000081
:2087bc0000000000000000000000000000000000000000000000000000000000000000009d
:1687dc000000000000000000000000000000000000000000000087
:2087f2000000000000c30200000000000000000000000000000000000000000000000000a2
:20881200000000000000000000000000000000000000000000000000000000000000000046
:1788320000000000000000000000000000000000000000000000002f
:20884900000000000c300000000000000000000000000000000000000000000000000000d3
:208869000000000000000000000000000000000000000000000000000000000000000000ef
:1688890000000000000000000000000000000000000000000000d9
:20889f000000000000c30200000000000000000000000000000000000000000000000000f4
:2088bf00000000000000000000000000000000000000000000000000000000000000000099
:1788df00000000000000000000000000000000000100000000000081
:2088f600000000000c30000000000000000000000000000000000000000000000000000026
:20891600000000000000000000000000000000000000000000000000000000000000000041
:16893600000000000000000000000000000000000000000000002b
:20894c000000000000c3020000000000000000000000000000000000000000000000000046
:20896c000000000000000000000000000000000000000000000000000000000000000000eb
:17898c000000000000000000000000000000000000000000000000d4
:2089a300000000000c30000000000000000000000000000000000000000000000000000078
:2089c300000000000000000000000000000000000000000000000000000000000000000094
:1689e300000000000000000000000000000000000000000000007e
:2089f9000000000000c3020000000000000000000000000000000000000000000000000099
:208a190000000000000000000000000000000000000000000000000000000000000000003d
:178a3900000000000000000000000000000000000000000000000026
:208a5000000000000c300000000000000000000000000000000000000000000000000000ca
:208a70000000000000000000000000000000000000000000000000000000000000000000e6
:168a900000000000000000000000000000000000000000000000d0
:208aa6000000000000c30200000000000000000000000000000000000000000000000000eb
:208ac600000000000000000000000000000000000000000000000000000000000000000090
:178ae600000000000000000000000000000000000000000000000079
:208afd00000000000c3000000000000000000000000000000000000000000000000000001d
:208b1d00000000000000000000000000000000000000000000000000000000000000000038
:168b3d000000000000000000000000000000000000000000000022
:208b53000000000000c302000000000000000000000000000000000000000000000000003d
:208b73000000000000000000000000000000000000000000000000000000000000000000e2
:178b93000000000000000000000000000000000000000000000000cb
:208baa00000000000c3000000000000000000000000000000000000000000000000000006f
:208bca0000000000000000000000000000000000000000000000000000000000000000008b
:168bea000000000000000000000000000000000000000000000075
:208c00000000000000c302000000000000000000000000000000000000000000000000008f
:208c2000000000000000000000000000000000000000000000000000000000000000000034
:178c400000000000000000000000000000000000000000000000001d
:208c5700000000000c300000000000000000000000000000000000000000000000000000c1
:208c77000000000000000000000000000000000000000000000000000000000000000000dd
:168c970000000000000000000000000000000000000000000000c7
:208cad000000000000c30200000000000000000000000000000000000000000000000000e2
:208ccd00000000000000000000000000000000000000000000000000000000000000000087
:178ced00000000000000000000000000000000000000000000000070
:208d040000000000000000000000000000000000000000000000000000000000000000004f
:208d240000000000000000000000000000000000000000000000000000000000000000002f
:20921500000000000000000400000000000000000000000000000000000000000000000035
:20923500000000000000000000000000000000000000000000000000000000000000000019
:17925500000000000000000000000000000000000000000000000002
:20926c000000000000000000000000000000000000000000000000000000000000000000e2
:20928c000000000000000000000000000000000000000000000000000000000000000000c2
:20a2a400000000000c3000000000000000000000000000000000000000000000000000005e
:20a2c40000000000000000000000000000000000000000000000000000000000000000007a
:16a2e4000000000000000000000000000000000000000000000064
:20a2fa000000000000c302000000000000000000000000000000000000000000000000007f
:20a31a00000000000000000000000000000000000000000000000000000000000000000023
:17a33a0000000000000000000000000000000000000000000000000c
:20a35100000000000c300000000000000000000000000000000000000000000000000000b0
:20a371000000000000000000000000000000000000000000000000000000000000000000cc
:16a3910000000000000000000000000000000000000000000000b6
:20a3a7000000000000c30200000000000000000000000000000000000000000000000000d1
:20a3c700000000000000000000000000000000000000000000000000000000000000000076
:17a3e70000000000000000000000000000000000000000000000005f
:20a3fe00000000000c30000000000000000000000000000000000000000000000000000003
:20a41e0000000000000000000000000000000000000000000000000000000000000000001e
:16a43e000000000000000000000000000000000000000000000008
:20a454000000000000c3020000000000000000000000000000000000000000000000000023
:20a474000000000000000000000000000000000000000000000000000000000000000000c8
:17a494000000000000000000000000000000000000000000000000b1
:20a4ab00000000000c30000000000000000000000000000000000000000000000000000055
:20a4cb00000000000000000000000000000000000000000000000000000000000000000071
:16a4eb00000000000000000000000000000000000000000000005b
:20a501000000000000c3020000000000000000000000000000000000000000000000000075
:20a5210000000000000000000000000000000000000000000000000000000000000000001a
:17a54100000000000000000000000000000000000000000000000003
:20a55800000000000c300000000000000000000000000000000000000000000000000000a7
:20a578000000000000000000000000000000000000000000000000000000000000000000c3
:16a5980000000000000000000000000000000000000000000000ad
:20a5ae000000000000c30200000000000000000000000000000000000000000000000000c8
:20a5ce0000000000000000000000000000000000000000000000000000000000000000006d
:17a5ee00000000000000000000000000000000000000000000000056
:20a60500000000000c300000000000000000000000000000000000000000000000000000f9
:20a62500000000000000000000000000000000000000000000000000000000000000000015
:16a6450000000000000000000000000000000000000000000000ff
:20a65b000000000000c302000000000000000000000000000000000000000000000000001a
:20a67b000000000000000000000000000000000000000000000000000000000000000000bf
:17a69b000000000000000000000000000000000000000000000000a8
:20a6b200000000000c3000000000000000000000000000000000000000000000000000004c
:20a6d200000000000000000000000000000000000000000000000000000000000000000068
:16a6f2000000000000000000000000000000000000000000000052
:20a708000000000000c302000000000000000000000000000000000000000000000000006c
:20a72800000000000000000000000000000000000000000000000000000000000000000011
:17a748000000000000000000000000000000000000000000000000fa
:20a75f00000000000c3000000000000000000000000000000000000000000000000000009e
:20a77f000000000000000000000000000000000000000000000000000000000000000000ba
:16a79f0000000000000000000000000000000000000000000000a4
:20a7b5000000000000c30200000000000000000000000000000000000000000000000000bf
:20a7d500000000000000000000000000000000000000000000000000000000000000000064
:17a7f50000000000000000000000000000000000000000000000004d
:20a80c00000000000c300000000000000000000000000000000000000000000000000000f0
:20a82c0000000000000000000000000000000000000000000000000000000000000000000c
:16a84c0000000000000000000000000000000000000000000000f6
:20a862000000000000c3020000000000000000000000000000000000000000000000000011
:20a882000000000000000000000000000000000000000000000000000000000000000000b6
:17a8a20000000000000000000000000000000000000000000000009f
:20a8b900000000000c30000000000000000000000000000000000000000000000000000043
:20a8d90000000000000000000000000000000000000000000000000000000000000000005f
:16a8f9000000000000000000000000000000000000000000000049
:20a90f000000000000c3020000000000000000000000000000000000000000000000000063
:20a92f00000000000000000000000000000000000000000000000000000000000000000008
:17a94f000000000000000000000000000000000000000000000000f1
:20a96600000000000c30000000000000000000000000000000000000000000000000000095
:20a986000000000000000000000000000000000000000000000000000000000000000000b1
:16a9a600000000000000000000000000000000000000000000009b
:20a9bc000000000000c30200000000000000000000000000000000000000000000000000b6
:20a9dc0000000000000000000000000000000000000000000000000000000000000000005b
