:02000000ff00ff
:080002004c6174746963650030
:17000a00694345637562653220323031372e30382e32373934300069
:15002100506172743a2069434534305550354b2d53473438002c
:1a003600446174653a20417072203520323032302030313a30353a323300bd
:0200500000ffaf
:040052007eaa997e6b
:02005600510057
:020058000105a0
:03005a00920020f1
:03005d006202b389
:03006000720150da
:0300630082000018
:02006600110087
:02006800010194
:20006a00000000000000000000000010000000000000400000000000010000000000000421
:20008a000000000000001000000000000040200000000000000000000040000200000000a4
:1600aa0000000000000004000000000000100000000000004000ec
:2000c0000000000000000000000000020000000000000800000000000020000000000000f6
:2000e00080000000000000000000000000000000340000000000000000000000000000004c
:1701000020000000000000800000000000020000000000000800003e
:200117000000000000000000000000000000000000000000000000000000000000000000c8
:20013700000000000000000000000000000010000000000000000000000000010000000097
:160157000000000000000000000000000000000000000000000092
:20016d00000000000000000000000000000000000000000000000000000000000000000072
:20018d00000000000000000000000000000000000000010000000000000000000000000051
:1701ad0010000000000000000000000000000000000000000000002b
:2001c40000000000000000000000000000000000000000000000000000000000000000001b
:2001e400000000000000000000000780000020000000c00000000000000000020000000092
:1602040000000000000000000000000000000000000000000000e4
:20021a000000000000000000000000000000000000000000000000000000000000000000c4
:20023a000000000000000000000000080000000000000c0000000000000000000000000090
:17025a0040000000000000000000000000000000000000000000004d
:2002710000000000000000000000000000000000000000000000000000000000000000006d
:2002910000000000000000000000000000000000000000000000000000000000000000004d
:1602b1000000000000000000000000000000000000000000000037
:2002c700000000000000000000000000000000000000000000000000000000000000000017
:2002e7000000000000000000000000000000000000000000000000000000000000000000f7
:170307000000000000000000000000000000000000000000000000df
:20031e000000000000000000000000000000000000000000000000000000000000000000bf
:20033e000000000000001000000000000040000000801000000000000040000000000c0172
:16035e0000000000000020000000000000800000000000000000e9
:20037400000000000000000000000000000000000000000000000000000000000000000069
:200394000000000000000000000000000000000000000000000000d0000000000000000079
:1703b400000000000000000000000000000000000000000000000032
:2003cb00000000000000000000000000000000000000000000000000000000000000000012
:2003eb000000000000000000000000000340000000000000000000000300000000000000ac
:16040b0000000000000000000000000000000000000000000000db
:200421000000000000000000000000000000000000000000000000000000000000000000bb
:200441000000010000000000000800580024010000000000000800000010000000000000fd
:17046100000000000000000000000000000000000000000000000084
:20047800000000000000000000000000000000000000000000000000000000000000000064
:200498000000000000000000000000000000000000008000000000000000000000000000c4
:1604b800000000000000000000000000000000000000000000002e
:2004ce0000000000000000000000000000000000000000000000000000000000000000000e
:2004ee000000010000000000000400000000010000000000000400000000000010000000d4
:17050e000000000000000000000000000000000000000000000000d6
:200525000000000000000000000000000000000000000000000000000000000000000000b6
:2005450000000000004000000000000100000000004000000000000100000001000204000d
:160565000000000000000000000000000000000000000000000080
:20057b00000000000000000000000000000000000000000000000000000000000000000060
:20059b000000020000000000000800000000020000000000000800000000000000014000eb
:1705bb00000000000000000000000000000000000000000000000029
:2005d200000000000c302000000000000000000000000000000000000000000000000000ad
:2005f2000000000000000000000000000000000000000000000000000000000000000000e9
:1606120000000000000000000000000000000000000000000000d2
:200628000000000000c30000000000000000000000000000000000000000000000000000ef
:20064800000000000000000000000000000000000000000000000000000000000000000092
:1706680000000000000000000000000000000000000000000000007b
:20067f00000000000c302000000000000000000000000000000000000000000000000000ff
:20069f0000000000000000000000000000000000000000000000000000000000000000003b
:1606bf000000000000000000000000000000000000000000000025
:2006d5000000000000c3000000000000000000000000000000000000000000000000000042
:2006f5000000000000000000000000000000000000000000000000000000000000000000e5
:170715000000000000000000000000000000000000000000000000cd
:20072c00000000000c30200000000000000000000000000000000000000000000000000051
:20074c0000000000000000000000000000000000000000000000000000000000000000008d
:16076c000000000000000000000000000000000000000000000077
:200782000000000000c3000000000000000000000000000000000000000000000000000094
:2007a200000000000000000000000000000000000000000000000000000000000000000037
:1707c200000000000000000000000000000000000000000000000020
:2007d900000000000c302000000000000000000000000000000000000000000000000000a4
:2007f9000000000000000000000000000000000000000000000000000000000400000000dc
:1608190000000000000000000000000000000000000000000000c9
:20082f000000000000c30000000000000000000000000000000000000000000000000000e6
:20084f00000000000000000000000000000000000000000000000000000000000000000089
:17086f00000000000000000000000000000000000000000000000072
:20088600000000000c302000000000000000000000000000000000000000000000000000f6
:2008a600000000000000000000000000000000000000000000000000000000000000000032
:1608c600000000000000000000000000000000000000000000001c
:2008dc000000000000c3000000000000000000000000000000000000000000000000000039
:2008fc000000000000000000000000000000000000000000000000000000000000000000dc
:17091c000000000000000000000000000000000000000000000000c4
:20093300000000000c30200000000000000000000000000000000000000000000000000048
:20095300000000000000000000000000000000000000000000000000000000000000000084
:16097300000000000000000000000000000000000000000000006e
:200989000000000000c300000000000000000000000000000000000000000000000000008b
:2009a90000000000000000000000000000000000000000000000000000000000000000002e
:1709c900000000000000000000000000000000000000000000000017
:2009e000000000000c3020000000000000000000000000000000000000000000000000009b
:200a00000000000000000000000000000000000000000000000000000000000000000000d6
:160a200000000000000000000000000000000000000000000000c0
:200a36000000000000c30000000000000000000000000000000000000000000000000000dd
:200a5600000000000000000000000000000000000000000000000000000000000000000080
:170a7600000000000000000000000000000000000000000000000069
:200a8d00000000000c302000000000000000000000000000000000000000000000000000ed
:200aad00000000000000000000000000000000000000000000000000000000000000000029
:160acd000000000000000000000000000000000000000000000013
:200ae3000000000000c3000000000000000000000000000000000000000000000000000030
:200b03000000000000000000000000000000000000000000000000000000000000000000d2
:170b23000000000000000000000000000000000000000000000000bb
:200b3a00000000000c3020000000000000000000000000000000000000000000000000003f
:200b5a0000000000000000000000000000000000000000000000000000000000000000007b
:160b7a000000000000000000000000000000000000000000000065
:200b90000000000000c3000000000000000000000000000000000000000000000000000082
:200bb000000000000000000000000000000000000000000000000000000000000000000025
:170bd00000000000000000000000000000000000000002c00000004c
:200be700000000000c30200000000000000000000000000000000000000000000000000092
:200c07000000000000000000000000000000000000000000000000000000000000000000cd
:160c27000000000000000000000000000000000e00002800000081
:200c3d000000000000c30000000000000000000000000000000000000000000000000000d4
:200c5d00000000000000000000000000000000000000000000000000000000000000000077
:170c7d000000000000000000000000000000000080000400000000dc
:200c9400000000000c302000000000000000000000000000000000000000000000000000e4
:200cb400000000000000000000000000000000000000000000000000000000000000000020
:160cd40000000000000000000000000000000000001400000000f6
:200cea000000000000c3000000000000000000000000000000000000000000000000000027
:200d0a000000000000000000000000000000000000000000000000000000000000000000c9
:170d2a00000000000000000000000000000000000000200000000092
:200d4100000000000c30200000000000000000000000000000000000000000000000000036
:200d6100000000000000000000000000000000000000000000000000000000000000000072
:160d8100000000000000000000000000000000000020000000003c
:200d97000000000000c3000000000000000000000000000000000000000000000000000079
:200db70000000000000000000000000000000000000000000000000000000000000000001c
:170dd7000000000000000000000000000000000000004000000000c5
:200dee00000000000c30200000000000000000000000000000000000000000000000000089
:200e0e000000000000000000000000000000000000000000000000000000000000000000c4
:160e2e00000000000000000000000000000000000000007aa14053
:200e44008000000000c300000000000000000000000000000000000000000000000000004b
:200e640000000000000000000000000000000000000000000000000000000000000000006e
:170e840000000000000000000000000000000000000000169d101480
:200e9b00000000000c302000000000000000000000000000000000000000000000000000db
:200ebb00000000000000000000000000000000000000000000000000000000000000000017
:160edb000000000000000000000000000000000000000000000001
:200ef1000000000000c300000000000000000000000000000000000000000000000000001e
:200f11000000000000000000000000000000000000000000000000000000000000000000c0
:170f31000000000000000000000000000000000000000000000000a9
:200f4800000000000c3020000000000000000000000000000000000000000000000000002d
:200f6800000000000000000000000000000000000000000000000000000000000000000069
:160f8800000000000000000000000000000000000000001a0f40ea
:200f9e000000000000c3000000000000000000000000000000000000000000000000000070
:200fbe00000000000000000000000000000000000000000000000000000000000000000013
:170fde00000000000000000000000000000000000000000000f20406
:200ff500000000000c30200000000000000000000000000000000000000000000000000080
:201015000000000000000000000000000000000000000000000000000000000000000000bb
:161035000000000000000000000000000000000c00000000000099
:20104b000000000000c30000000000000000000000000000000000000000000000000000c2
:20106b00000000000000000000000000000000000000000000000000000000000000000065
:17108b000000000000000000000000000000000080000000000000ce
:2010a200000000000c302000000000000000000000000000000000000000000000000000d2
:2010c20000000000000000000000000000000000000000000000000000000000000000000e
:1610e20000000000000000000000200000000000000000000000d8
:2010f8000000000000c3000000000000000000000000000000000000000000000000000015
:201118000000000000000000000000000000000000000000000000000000000000000000b7
:1711380000000000000000000000010000000000000000000000009f
:20114f00000000000c30200000000000000000000000000000000000000000000000000024
:20116f00000000000000000000000000000000000000000000000000000000000000000060
:16118f0000000000000000000000000000000000000001d8fd2054
:2011a5000000000000c3000000000000000000000000000000000000000000000000000067
:2011c50000000000000000000000000000000000000000000000000000000000000000000a
:1711e50000000000000000000000000000000000000003fddff00024
:2011fc00000000000c30200000000000000000000000000000000000000000000000000077
:20121c000000000000000000000000000000000000000000000000000000000000000000b2
:16123c0000000000000000000000000000000000000000ce0020ae
:201252000000000000c30000000000000000000000000000000000000000000000000000b9
:2012720000000000000000000000000000000000000000000000000000000000000000005c
:17129200000000000000000000000000000000000000000f05000031
:2012a900000000000c302000000000000000000000000000000000000000000000000000c9
:2012c900000000000000000000000000000000000000000000000000000000000000000005
:1612e90000000000000000000000000000000000000000000000ef
:2012ff000000000000c300000000000000000000000000000000000000000000000000000c
:20131f000000000000000000000000000000000000000000000000000000000000000000ae
:17133f00000000000000000000000000000000000000000000000097
:20135600000000000c3020000000000000000000000000000000000000000000000000001b
:20137600000000000000000000000000000000000000000000000000000000000000000057
:161396000000000000000000000000000000000000002800000019
:2013ac000000000000c300000000000000000000000000000000000000000000000000005e
:2013cc000000000000000000000000000000001800000000000000000000000000000000e9
:1713ec000000000000000000000000000000000000024000000000a8
:20140300000000000c3020000000000000000000000000000000000000000000000000006d
:201423000000000000000000000000000000000000000000000000000000000000000000a9
:161443000000000000000000000000000000000000000000000093
:201459000000000000c30000000000000000000000000000000000000000000000000000b0
:20147900000000000000000000000000000000000000000000000000000000000000000053
:1714990000000000000000000000000000000000000000000000003c
:2014b000000000000c302000000000000000000000000000000000000000000000000000c0
:2014d0000000000000000000000000000000002000000000000000000000000000000000dc
:1614f00000000000000000000000000000000000001c00000000ca
:201506000000000000c3000000000000000000000000000000000000000000000000000002
:201526000000000000000000000000000000000000000000000000000000000000000000a5
:1715460000000000000000000000000000000000000022000000006c
:20155d00000000000c30200000000000000000000000000000000000000000000000000012
:20157d0000000000000000000000000000000000000000000000000000000000000000004e
:16159d0000000000000000000000000000000000000001d8a000bf
:2015b3000000000000c3000000000000000000000000000000000000000000000000000055
:2015d3000000000000000000000000000000000000000000000000000000000000000000f8
:1715f30000000000000000000000000000000000000000010a028054
:20160a00000000000c30200000000000000000000000000000000000000000000000000064
:20162a000000000000000000000000000000000000000000000000000000000000000000a0
:16164a000000000000000000000800000000000000000000000082
:201660000000000000c30000000000000000000000000000000000000000000000000000a7
:2016800000000000000000000000000000000000000000000000000000000000000000004a
:1716a0000000004000000000000000000000000000034000000000b0
:2016b700000000000c302000000000000000000000000000000000000000000000000000b7
:2016d7000000000000000000000000000000000000000000000000000000000000000000f3
:1616f7000000006000000000000000000000000e0000005cf040e3
:20170d000000000000c30000000000000000000000000000000000000000000000000000f9
:20172d0000000000000000000000000000000000000000000000000000000000000000009c
:17174d00000000000000000000000000000000008000000d0fa9043c
:20176400000000000c30200000000000000000000000000000000000000000000000000009
:20178400000000000000000000000000000000000000000000000000000000000000000045
:1617a40000000000000000000000000000000000400000000000ef
:2017ba000000000000c300000000000000000000000000000000000000000000000000004c
:2017da000000000000000000000000000000000000000000000000000000000000000000ef
:1717fa000000000000000000000000000000000002000000000000d6
:20181100000000000c3020000000000000000000000000000000000000000000000000005b
:20183100000000000000000000000000000000000000000000000000000000000000000097
:161851000000000000000000000000000000000000000000000081
:201867000000000000c300000000000000000000000000000000000000000000000000009e
:20188700000000000000000000000000000000000000000000000000000000000000000041
:1718a70000000000000000000000000000000000000000000000002a
:2018be00000000000c302000000000000000000000000000000000000000000000000000ae
:2018de000000000000000000002000000000000000000000000000000000000000000000ca
:1618fe00000000000000000000000000000000004006000000008e
:201914000000000000c30000000000000000000000000000000000000000000000000000f0
:20193400000000000000000000000000000000000000000000000000000000000000000093
:17195400000000000000000000000000000000000a00000000000072
:20196b00000000000c30200000000000000000000000000000000000000000000000000000
:20198b0000000000000000000000000000000000000000000000000000000000000000003c
:1619ab000000000000000000000000000000000000000000000026
:2019c1000000000000c3000000000000000000000000000000000000000000000000000043
:2019e1000000000000000000000000000000000000000000000000000000000000000000e6
:171a010000000000000000000000000000000000000003c00000000b
:201a1800000000000c30200000000000000000000000000000000000000000000000000052
:201a380000000000000000000000000000000000000000000000000000000000000000008e
:161a58000000000000000000000000000000000000000000000078
:201a6e000000000000c3000000000000000000000000000000000000000000000000000095
:201a8e00000000000000000000000000000000000000000000000000000000000000000038
:171aae00000000000000000000000000000000000000000000000021
:201ac500000000000c302000000000000000000000000000000000000000000000000000a5
:201ae5000000000000000000000000000000000000000000000000000000000000000000e1
:161b05000000000000000000000000000000000c100000000000ae
:201b1b000000000000c30000000000000000000000000000000000000000000000000000e7
:201b3b0000000000000000000000000000000000000000000000000000000000000000008a
:171b5b000000000000000000000000000000000081000000000000f2
:201b7200000000000000000000000000000000000000000000000000000000000000000053
:201b9200000000000000000000000000000000000000000000000000000000000000000033
:161bb20000000000000000000000000000000000000002de00003d
:201bc8000000000000000000000000000000000000000000000000000000000000000000fd
:201be8000000000000000000000000000000000000000000000000000000000000000000dd
:171c0800000000000000000000000000000000000000000d00500068
:201c1f000000000000000000000000000000000000000000000000000000000000000000a5
:201c3f00000000000000000000000000000000000000000000000000000000000000000085
:161c5f00000000000000000000000000000000000000000000006f
:201c750000000000000000000000000000000000000000000000000000000000000000004f
:201c950000000000000000000000000000000000000000000000000000000000000000002f
:171cb500000000000000000000000000000000000000000000000018
:201ccc000000000000000000000000000000000000000000000000000000000000000000f8
:201cec000000000000000000000000000000000000000000000000000000000000000000d8
:161d0c0000000000000000000000000000000000000000000000c1
:201d22000000000000000000000000000000000000000000000000000000000000000000a1
:201d4200000000000000000000000000000000000000000000000000000000000000000081
:171d620000000000000000000000000000000000000000000000006a
:201d790000000000000000000000000000000000000000000000000000000000000000004a
:201d990000000000000000000000000000000000000000000000000000000000000000002a
:161db9000000000000000000000000000000000000000000000014
:201dcf000000000000000000000000000000000000000000000000000000000000000000f4
:201def000000000000000000000000000000000000000000000000000000000000000000d4
:171e0f000000000000000000000000000000000000000000000000bc
:201e260000000000000000000000000000000000000000000000000000000000000000009c
:201e460000000000000000000000000000000000000000000000000000000000000000007c
:161e660000000000000000000000000000000000001c000000004a
:201e7c00000000000000000000000000000000000000000000000000000000000000000046
:201e9c00000000000000000000000000000000000000000000000000000000000000000026
:171ebc000000000000000000000000000000000000002000000000ef
:201ed3000000000000000000000000000000000000000000000000000000000000000000ef
:201ef3000000000000000000000000000000000000000000000000000000000000000000cf
:161f130000000000000000000000000000000000000000000000b8
:201f2900000000000000000000000000000000000000000000000000000000000000000098
:201f4900000000000000000000000000000000000000000000000000000000000000000078
:171f6900000000000000000000000000000000000003c0000000009e
:201f8000000000000000000000000000000000000000000000000000000000000000000041
:201fa000000000000000000000000000000000000000000000000000000000000000000021
:161fc000000000000000000000000000000000000000000000000b
:201fd6000000000000000000000000000000000000000000000000000000000000000000eb
:201ff6000000000000000000000000000000000000000000000000000000000000000000cb
:172016000000000000000000000000000000000000000000000000b3
:20202d00000000000000000000000000000000000000000000000000000000000000000093
:20204d00000000000000000000000000000000000000000000000000000000000000000073
:16206d000000000000000000000000000000000000000400000059
:2020830000000000000000000000000000000000000000000000000000000000000000003d
:2020a30000000000000000000000000000000000000000000000000000000000000000001d
:1720c300000000000000000000000000000000000000038000000083
:2020da000000000000000000000000000000000000000000000000000000000000000000e6
:2020fa000000000000000000000000000000000000000000000000000000000000000000c6
:16211a0000000000000000000000000000000000000000000000af
:2021300000000000000000000000000000000000000000000000000000000000000000008f
:2021500000000000000000000000000000000000000000000000000000000000000000006f
:17217000000000000000000000000000000000000000000000000058
:20218700000000000000000000000000000000000000000000000000000000000000000038
:2021a700000000000000000000000000000000000000000000000000000000000000000018
:1621c7000000000000000000000000000000000000000000000002
:2021dd000000000000000000000000000000000000000000000000000000000000000000e2
:2021fd000000000000000000000000000000000000000000000000000000000000000000c2
:17221d000000000000000000000000000000000000000000000000aa
:2022340000000000000000000000000000000000000000000000000000000000000000008a
:2022540000000000000000000000000000000000000000000000000000000000000000006a
:162274000000000000000000000000000000000100000000000053
:20228a00000000000000000000000000000000000000000000000000000000000000000034
:2022aa00000000000000000000000000000000000000000000000000000000000000000014
:1722ca000000000000000000000000000000000010000000000000ed
:2022e1000000000000000000000000000000000000000000000000000000000000000000dd
:202301000000000000000000000000000000000000000000000000000000000000000000bc
:1623210000000000000000000000000000000000000000000000a6
:20233700000000000000000000000000000000000000000000000000000000000000000086
:20235700000000000000000000000000000000000000000000000000000000000000000066
:1723770000000000000000000000000000000000000000000000004f
:20238e0000000000000000000000000000000000000000000000000000000000000000002f
:2023ae0000000000000000000000000000000000000000000000000000000000000000000f
:1623ce0000000000000000000000000000000000000000000000f9
:2023e4000000000000000000000000000000000000000000000000000000000000000000d9
:202404000000000000000000000000000000000000000000000000000000000000000000b8
:172424000000000000000000000000000000000000000000000000a1
:20243b00000000000000000000000000000000000000000000000000000000000000000081
:20245b00000000000000000000000000000000000000000000000000000000000000000061
:16247b00000000000000000000000000000000000000000000004b
:2024910000000000000000000000000000000000000000000000000000000000000000002b
:2024b100000000000000000000000000000000000400000000000000000000000000000007
:1724d1000000000000000000000000000000000000000000000000f4
:2024e8000000000000000000000000000000000000000000000000000000000000000000d4
:202508000000000000000000000000000000000000000000000000000000000000000000b3
:16252800000000000000000000000000000000000000000000009d
:172fa1000000000000000000000000000000000000c0000000000059
:202fb8000000000000000000000000000000000000000000000000000000000000000000f9
:202fd8000000000000000000000000000000000000000000000000000000000000000000d9
:162ff80000000000000000000000000000000000000000000000c3
:20300e000000000000000000000000000000000000000000000000000000000000000000a2
:20302e00000000000000000000000000000000000000000000000000000000000000000082
:17304e0000000000000000000000000000000000000000000000006b
:2030650000000000000000000000000000000000000000000000000000000000000000004b
:2030850000000000000000000000000000000000000000000000000000000000000000002b
:1630a5000000000000000000000000000000000000000000000015
:2030bb000000000000000000000000000000000000000000000000000000000000000000f5
:2030db000000000000000000000000000000000000000000000000000000000000000000d5
:1730fb000000000000000000000000000000000000000000000000be
:20311200000000000c30200000000000000000000000000000000000000000000000000041
:2031320000000000000000000000000000000000000000000000000000000000000000007d
:163152000000000000000000000000000000000000000000000067
:203168000000000000c3000000000000000000000000000000000000000000000000000084
:20318800000000000000000000000000000000000000000000000000000000000000000027
:1731a800000000000000000000000000000000000000000000000010
:2031bf00000000000c30200000000000000000000000000000000000000000000000000094
:2031df000000000000000000000000000000000000000000000000000000000000000000d0
:1631ff0000000000000000000000000000000000000000000000ba
:203215000000000000c30000000000000000000000000000000000000000000000000000d6
:20323500000000000000000000000000000000000000000000000000000000000000000079
:17325500000000000000000000000000000000000000000000000062
:20326c00000000000c302000000000000000000000000000000000000000000000000000e6
:20328c00000000000000000000000000000000000000000000000000000000000000000022
:1632ac00000000000000000000000000000000000000000000000c
:2032c2000000000000c3000000000000000000000000000000000000000000000000000029
:2032e2000000000000000000000000000000000000000000000000000000000000000000cc
:173302000000000000000000000000000000000000000000000000b4
:20331900000000000c30200000000000000000000000000000000000000000000000000038
:20333900000000000000000000000000000000000000000000000000000000000000000074
:16335900000000000000000000000000000000000000000000005e
:20336f000000000000c300000000000000000000000000000000000000000000000000007b
:20338f0000000000000000000000000000000000000000000000000000000000000000001e
:1733af00000000000000000000000000000000000000000000000007
:2033c600000000000c3020000000000000000000000000000000000000000000000000008b
:2033e6000000000000000000000000000000000000000000000000000000000000000000c7
:1634060000000000000000000000000000000000000000000000b0
:20341c000000000000c30000000000000000000000000000000000000000000000000000cd
:20343c00000000000000000000000000000000000000000000000000000000000000000070
:17345c00000000000000000000000000000000000000000000000059
:20347300000000000c302000000000000000000000000000000000000000000000000000dd
:20349300000000000000000000000000000000000000000000000000000000000000000019
:1634b3000000000000000000000000000000000000000000000003
:2034c9000000000000c3000000000000000000000000000000000000000000000000000020
:2034e9000000000000000000000000000000000000000000000000000000000000000000c3
:173509000000000000000000000000000000000000000000000000ab
:20352000000000000c3020000000000000000000000000000000000000000000000000002f
:2035400000000000000000000000000000000000000000000000000000000000000000006b
:163560000000000000000000000000000000000000000000000055
:203576000000000000c3000000000000000000000000000000000000000000000000000072
:20359600000000000000000000000000000000000000000000000000000000000000000015
:1735b6000000000000000000000000000000000000000000000000fe
:2035cd00000000000c30200000000000000000000000000000000000000000000000000082
:2035ed000000000000000000000000000000000000000000000000000000000000000000be
:16360d0000000000000000000000000000000000000000000000a7
:203623000000000000c30000000000000000000000000000000000000000000000000000c4
:20364300000000000000000000000000000000000000000000000000000000000000000067
:17366300000000000000000000000000000000000000000000000050
:20367a00000000000000000000000000000000000000000000000000000000000000000030
:20369a00000000000000000000000000000000000000000000000000000000000000000010
:163ccf000000000000000000000000000000000e000000000000d1
:203ce5000000000000000000000000000000000000000000000000000000000000000000bf
:203d050000000000000000000000000000000000000000000000000000000000000000009e
:173d2500000000000000000000000000000000008000000000000007
:203d3c00000000000000000000000000000000000000000000000000000000000000000067
:203d5c00000000000000000000000000000000000000000000000000000000000000000047
:163d7c00000000000000000000000000000000000014000000001d
:203d9200000000000000000000000000000000000000000000000000000000000000000011
:203db2000000000000000000000000000000000000000000000000000000000000000000f1
:173dd200000000000000000000000000000000000000238000000037
:203de9000000000000000000000000000000000000000000000000000000000000000000ba
:203e0900000000000000000000000000000000000000000000000000000000000000000099
:163e29000000000000000000000000000000000000000000000083
:203e3f00000000000000000000000000000000000000000000000000000000000000000063
:203e5f00000000000000000000000000000000000000000000000000000000000000000043
:173e7f0000000000000000000000000000000000000000000000002c
:203e960000000000000000000000000000000000000000000000000000000000000000000c
:203eb6000000000000000000000000000000000000000000000000000000000000000000ec
:163ed60000000000000000000000000000000000000028000000ae
:203eec000000000000000000000000000000000000000000000000000000000000000000b6
:203f0c00000000000000000000000000000000000000000000000000000000000000000095
:173f2c0000000000000000000000000000000000000000000000007e
:203f430000000000000000000000000000000000000000000000000000000000000000005e
:203f630000000000000000000000000000000000000000000000000000000000000000003e
:163f83000000000000000000000000000000000000000000000028
:203f9900000000000000000000000000000000000000000000000000000000000000000008
:203fb9000000000000000000000000000000000000000000000000000000000000000000e8
:173fd9000000000000000000000000000000000000000000000000d1
:203ff0000000000000000000000000000000000000000000000000000000000000000000b1
:20401000000000000000000000000000000000000000000000000000000000000000000090
:1640300000000000000000000000000000000000001e00ca25402d
:2040460000000000000000000000000000000000000000000000000000000000000000005a
:2040660000000000000000000000000000000000000000000000000000000000000000003a
:174086000000000000000000000000000000000000000017ea508052
:20409d00000000000000000000000000000000000000000000000000000000000000000003
:2040bd000000000000000000000000000000000000000000000000000000000000000000e3
:1640dd000000000000000000000000000000000c000000000000c1
:2040f3000000000000000000000000000000000000000000000000000000000000000000ad
:2041130000000000000000000000000000000000000000000000000000000000000000008c
:17413300000000000000000000000000000000000000000000000075
:20414a00000000000000000000000000000000000000000000000000000000000000000055
:20416a00000000000000000000000000000000000000000000000000000000000000000035
:16418a0000000000000000000000000000000000040001da5000f0
:2041a0000000000000000000000000000000000000000000000000000000000000000000ff
:2041c0000000000000000000000000000000000000000000000000000000000000000000df
:1741e00000000000000000000000000000000000000002c105000000
:2041f7000000000000000000000000000000000000000000000000000000000000000000a8
:20421700000000000000000000000000000000000000000000000000000000000000000087
:1642370000000000000000000000000000000000000001c80202a4
:20424d00000000000000000000000000000000000000000000000000000000000000000051
:20426d00000000000000000000000000000000000000000000000000000000000000000031
:17428d00000000000000000000000000000000000000003d000000dd
:2042a4000000000000000000000000000000000000000000000000000000000000000000fa
:2042c4000000000000000000000000000000000000000000000000000000000000000000da
:1642e40000000000000000000000000000000000000000000000c4
:2042fa000000000000000000000000000000000000000000000000000000000000000000a4
:20431a00000000000000000000000000000000000000000000000000000000000000000083
:17433a0000000000000000000000000000000000000000000000006c
:2043510000000000000000000000000000000000000000000000000000000000000000004c
:2043710000000000000000000000000000000000000000000000000000000000000000002c
:1643910000000000000000000000000000000000a0000000000076
:2043a7000000000000000000000000000000000000000000000000000000000000000000f6
:2043c7000000000000000000000000000000000000000000000000000000000000000000d6
:1743e70000000000000000000000000000000000000002800000003d
:2043fe0000000000000000000000000000000000000000000000000000000000000000009f
:20441e0000000000000000000000000000000000000000000000000000000000000000007e
:16443e00000000000000000000000000000000000e00000000005a
:20445400000000000000000000000000000000000000000000000000000000000000000048
:20447400000000000000000000000000000000000000000000000000000000000000000028
:17449400000000000000000000000000000000000000000000000011
:2044ab000000000000000000000000000000000000000000000000000000000000000000f1
:2044cb000000000000000000000000000000000000000000000000000000000000000000d1
:1644eb0000000000000000000000000000000000000000000000bb
:2045010000000000000000000000000000000000000000000000000000000000000000009a
:2045210000000000000000000000000000000000000000000000000000000000000000007a
:17454100000000000000000000000000000000000000000000000063
:20455800000000000000000000000000000000000000000000000000000000000000000043
:20457800000000000000000000000000000000000000000000000000000000000000000023
:1645980000000000000000000000000000000000001604000000f3
:2045ae000000000000000000000000000000000000000000000000000000000000000000ed
:2045ce000000000000000000000000000000000000000000000000000000000000000000cd
:1745ee000000000000000000000000000000000000014280000000f3
:20460500000000000000000000000000000000000000000000000000000000000000000095
:20462500000000000000000000000000000000000000000000000000000000000000000075
:16464500000000000000000000000000000000000000000000005f
:20465b0000000000000000000000000000000000000000000000000000000000000000003f
:20467b0000000000000000000000000000000000000000000000000000000000000000001f
:17469b00000000000000000000000000000000000000000000000008
:2046b2000000000000000000000000000000000000000000000000000000000000000000e8
:2046d2000000000000000000000000000000000000000000000000000000000000000000c8
:1646f20000000000000000000000000000000000000000000000b2
:20470800000000000000000000000000000000000000000000000000000000000000000091
:20472800000000000000000000000000000000000000000000000000000000000000000071
:1747480000000000000000000000000000000000000000000000005a
:20475f0000000000000000000000000000000000000000000000000000000000000000003a
:20477f0000000000000000000000000000000000000000000000000000000000000000001a
:16479f000000000000000000000000000000000e000000000000f6
:2047b5000000000000000000000000000000000000000000000000000000000000000000e4
:2047d5000000000000000000000000000000000000000000000000000000000000000000c4
:1747f50000000000000000000000000000000000800000000000002d
:20480c0000000000000000000000000000000000000000000000000000000000000000008c
:20482c00000000000000000000000000000000000000000000000000000000040000000068
:16484c00000000000000000000000000000000000034015e25405e
:20486200000000000000000000000000000000000000000000000000000000000000000036
:204882000000000000000000000000000000000000000000000000000000000040000000d6
:1748a2000000000000000000000000000000000000024015ea50105e
:2048b9000000000000000000000000000000000000000000000000000000000000000000df
:2048d9000000000000000000000000000000000000000000000000000000000000000000bf
:1648f90000000000000000000000000000000000000000000000a9
:20490f00000000000000000000000000000000000000000000000000000000000000000088
:20492f00000000000000000000000000000000000000000000000000000000000000000068
:17494f00000000000000000000000000000000000000000000000051
:20496600000000000000000000000000000000000000000000000000000000000000000031
:20498600000000000000000000000000000000000000000000000000000000000000000011
:1649a60000000000000000000000000000000000000000000000fb
:2049bc000000000000000000000000000000000000000000000000000000000000000000db
:2049dc000000000000000000000000000000000000000000000000000000000000000000bb
:1749fc000000000000000000000000000000000000000000000000a4
:204a1300000000000000000000000000000000000000000000000000000000000000000083
:204a3300000000000000000000000000000000000000000000000000000000000000000063
:164a5300000000000000000000000000000000000000000000004d
:204a690000000000000000000000000000000000000000000000000000000000000000002d
:204a890000000000000000000000000000000000000000000000000000000000000000000d
:174aa9000000000000000000000000000000000000000000000000f6
:204ac0000000000000000000000000000000000000000000000000000000000000000000d6
:204ae0000000000000000000000000000000000000000000000000000000000000000000b6
:164b000000000000000000000000000000000000001c0000000083
:204b160000000000000000000000000000000000000000000000000000000000000000007f
:204b360000000000000000000000000000000000000000000000000000000000000000005f
:174b5600000000000000000000000000000000000000200000000028
:204b6d00000000000000000000000000000000000000000000000000000000000000000028
:204b8d00000000000000000000000000000000000000000000000000000000000000000008
:164bad000000000000000000000000000000000c000004000000e2
:204bc3000000000000000000000000000000000000000000000000000000000000000000d2
:204be3000000000000000000000000000000000000000000000000000000000000000000b2
:174c0300000000000000000000000000000000000000034000000057
:204c1a00000000000c3020000000000000000000000000000000000000000000000000001e
:204c3a0000000000000000000000000000000000000000000000000000000000007807805b
:164c5a00020000036307b080000000000000000040000000000065
:204c70000000000000c3000000000000000000000000000000000000000000000000000061
:204c90000000000000000000000000000000000000000000000000000000000000000008fc
:174cb000000080000440fd0000000000000000000800000000000024
:204cc700000000000c30200000000000000000000000000000000000000000000000000071
:204ce70000000000000000000000000000000000000000000000000000000038000007224c
:164d07005b00000206c00000000000000000000000000000000073
:204d1d000000000000c30000000000000000000000000000000000000000000000000000b3
:204d3d00000000000000000000000000000000000000000000000000000000020000000252
:174d5d0025800000142800000000000000000000000000000000005e
:204d7400000000000c30204000000000000000000000000000000000000000000000000083
:204d94000000000000000000000000000000000000000000000000000000000000799522cf
:164db4005b00000006ccd08000000000000000000000000000006c
:204dca000000000000c3000000000000000000000000000000000000000000000000000006
:204dea00000000000000000000000000000000000000000000000000000000000000080a97
:174e0a00a5800000002aec0000000000000000000014000000000042
:204e2100000000000c30200000000000000000000000000000000000000000000000000015
:204e4100000000000000000000000000000000000000000000000000000000028018152280
:164e61005b0000016027a0a0000000000000000000000000000018
:204e77000000000000c3000000000000000000000000000000000000000000000000000058
:204e9700000000000000000000000000000000000000000000000000000000001000080ad9
:174eb70025a00000002ce00000000000000000000000000000000013
:204ece00000000000c30200000000000000000000000000000000000000000000000000068
:204eee0000000000000000000000000000000000000000000000000000000008000007a2f3
:164f0e005b000001429de801200000000000000000000000000049
:204f24000000000000c30000000000000000000000000000000000000000000000000000aa
:204f440000000000000000000000000000000000000000000000000000000000000000024b
:174f6400a5800000366c7000000000000000000000000000000000ff
:204f7b00000000000c302000000000000000000000000000000000000000000000000000ba
:204f9b0000000000000000000000000000000000000000000000000000000000000005a24f
:164fbb005b0000014001efb020000000000000000a00000000007a
:204fd1000000000000c30000000000000000000000000000000000000000000000000000fd
:204ff10000000000000000000000000000000000000000000000000000000000000000029e
:1750110025a00000362e50f700000000000000000000000000000018
:20502800000000000c3020000000000000000000000000000000000000000000000000000c
:2050480000000000000000000000000000000000000000000000000000000000001805a289
:165068005b0000000044b0800080000000000000000000000000e3
:20507e000000000000c300000000000000000000000000000000000000000000000000004f
:20509e00000000000000000000000000000000000000000000000000000000000000000ae8
:1750be00a5a00000002358000000000000000000010000000000001a
:2050d500000000000c3020000000000000000000000000000000000000000000000000005f
:2050f5000000000000000000000000000000000000000000000000000000003040d987a229
:165115005b00000003c00000000000000000000010000000000056
:20512b000000000000c30000000000000000000000000000000000000000000000000000a1
:20514b000000000000000000000000000000000000000000000000000000000300010a0a2c
:17516b00258000000060000000000000000000000000000000000028
:2051820000000000000000000000000000000000000000000000000000000000000000000d
:2051a20000000000000000000000000000000000000000000000000000000000000187263f
:1651c2005b0000000000000000000000000000000000000000007c
:2051d8000000000000000000000000000000000000000000000000000000000000000000b7
:2051f800000000000000000000000000000000000000000000000000000000000000000394
:17521800658100000000000000000000000000000000000000000099
:20522f0000000000000000000000000000000000000000000000000000000000000000005f
:20524f0000000000000000000000000000000000000000000000000000000038001803a24a
:16526f005b00e000000000000000000000000000000000000000ee
:20528500000000000000000000000000000000000000000000000000000000000000000009
:2052a500000000000000000000000000000000000000000000000000000000020000000bdc
:1752c500258008000000000000000000000000000000000000000025
:2052dc000000000000000000000000000000000000000000000000000000000000000000b2
:2052fc00000000000000000000000000000000000000000000000000000000000000152657
:16531c005b00000000000000000000000000000000000000000020
:2053320000000000000000000000000000000000000000000000000000000000000000005b
:20535200000000000000000000000000000000000000000000000000000000000000080b28
:1753720065800000000000000000000000000000000000000000003f
:20538900000000000000000000000000000000000000000000000000000000000000000004
:2053a90000000000000000000000000000000000000000000000000000000000001803a227
:1653c9005b00000140000000000000000000000000000000000032
:2053df000000000000000000000000000000000000000000000000000000000000000000ae
:2053ff00000000000000000000000000000000000000000000000000000000000000800a04
:17541f00658000000000000000000000000000000000000000000091
:20543600000000000000000000000000000000000000000000000000000000000000000056
:2054560000000000000000000000000000000000000000000000000000000000001807a671
:165476005b000000000000000000000000000000000000000000c5
:20548c00000000000000000000000000000000000000000000000000000000000000000000
:2054ac000000000000000000000000000000000000000000000000000000000000000003dd
:1754cc006580000000000000000000000000000000000000000000e4
:2054e3000000000000000000000000000000000000000000000000000000000000000000a9
:2055030000000000000000000000000000000000000000000000000000000000000013a6cf
:165523005b00000000000000000000000000000000000000000017
:20553900000000000000000000000000000000000000000000000000000000000000000052
:205559000000000000000000000000000000000000000000000000000000000000000d0a1b
:17557900258000000000000000000000000000000000000000000076
:205590000000000000000000000000000000000000000000000000000000000000000000fb
:2055b00000000000000000000000000000000000000000000000000000000000008007a2b2
:1655d000a90000000001e0f4000000000000000000000000000047
:2055e6000000000000000000000000000000000000000000000000000000000000000000a5
:2056060000000000000000000000000000000000000000000000000000000000000100087b
:175626002a8000000000100f000000000000000000000000000000a4
:20563d0000000000000000000000000000000000000000000000000000000000000000004d
:20565d0000000000000000000000000000000000000000000000000000000010408010004d
:16567d000000410000400000000000000000000000000000000096
:205693000000000000000000000000000000000000000000000000000000000000000000f7
:2056b3000000000000000000000000000000000000000000000000000000000300010800cb
:1756d30000000c000020000000000000000000000000000000000094
:2056ea000000000000000000000000000000000000000000000000000000000000000000a0
:20570a0000000000000000000000000000000000000000000000000000000000000000007f
:16572a000000000000000000000000000000000000000000000069
:20574000000000000000000000000000000000000000000000000000000000000000000049
:20576000000000000000000000000000000000000000000000000000000000000000000029
:17578000000000000000000000000000000000000000000000000012
:205797000000000000000000000000000000000000000000000000000000000000000000f2
:2057b7000000000000000000000000000000000000000000000000000000000000000000d2
:1657d70000000000000000000000000000000000000000000000bc
:2057ed0000000000000000000000000000000000000000000000000000000000000000009c
:20580d00000000000000000000000000000000000000000000000240000000000000000039
:17582d00000000000000000000000000000000004000000000000024
:20584400000000000000000000000000000000000000000000000000000000000000000044
:20586400000000000000000000000000000000000000000000000000000000000000000024
:16588400000000000000000000000000000000000000000000000e
:20589a000000000000000000000000000000000000000000000000000000000000000000ee
:2058ba000000000000000000000000000000000000000000000000000000000000000000ce
:1758da000000000000000000000000000000000000000000000000b7
:2058f100000000000000000000000000000000000000000000000000000000000000000097
:20591100000000000000000000000000000000000000000000000000000000000000000076
:165931000000000000000000000000000000000000000000000060
:20594700000000000000000000000000000000000000000000000000000000000000000040
:20596700000000000000000000000000000000000000000000000000000000000000000020
:17598700000000000000000000000000000000000000000000000009
:20599e000000000000000000000000000000000000000000000000000000000000000000e9
:2059be00000000000000000000000000000040000000000000000000000000000000000089
:1659de0000000000000000000000000000000000000000000000b3
:2059f400000000000000000000000000000000000000000000000000000000000000000093
:205a140000000000000000000000000000000400000000000000000000000000000000006e
:175a340000000000000000000000000000000000000000000000005b
:205a4b0000000000000000000000000000000000000000000000000000000000000000003b
:205a6b00000000000000000000000000000000000000000000000000180f100000000000e4
:165a8b000000000000000000000000000000000000000000000005
:205aa1000000000000000000000000000000000000000000000000000000000000000000e5
:205ac1000000000000000000000000000000000000000000000000000000f00000000000d5
:175ae1000000000000000000000000000000000000000000000000ae
:205af80000000000000000000000000000000000000000000000000000000000000000008e
:205b180000000000000000000000000000000000000000000000000000000000000000006d
:165b38000000000000000000000000000000000000000000000057
:20631400000000000000004000000000000000000000000000000000000000000000000029
:20633400000000000000000000000000000000000000000000000000000000000000000049
:166354000000000000000000000000000000000000000000000033
:20636a00000000000000000000000000000000000000000000000000000000000000000013
:20638a00000000000000000000000000000000000000000000000000000000000180000072
:1763aa000000000000000000000000000000000000000000000000dc
:2063c1000000000000000000000000000000000000000000000000000000000000000000bc
:2063e10000000000000000000000000000000000000000000000000000000000000000009c
:166401000000000000000000000000000000000000000000000085
:20641700000000000000000000000000000000000000000000000000000000000000000065
:20643700000000000000000000000000000000000000000000000000000000000000000045
:1764570000000000000000000000000000000000000000000000002e
:20646e0000000000000000000000000000000000000000000000000000000000000000000e
:20648e000000000000000000000000000000000000000000000000000000000000000000ee
:1664ae0000000000000000000000000000000000000000000000d8
:2064c4000000000000000000000000000000000000000000000000000000000000000000b8
:2064e400000000000000000000000000000000000000000000000000000000000000000098
:17650400000000000000000000000000000000000000000000000080
:20651b00000000000000000000000000000000000000000000000000000000000000000060
:20653b00000000000000000000000000000000000000000000000000000000000000000040
:16655b00000000000000000000000000000000000000000000002a
:2065710000000000000000000000000000000000000000000000000000000000000000000a
:206591000000000000000000000000000000000000000000000000000000000000000000ea
:1765b1000000000000000000000000000000000000000000000000d3
:2065c8000000000000000000000000000000000000000000000000000000000000000000b3
:2065e800000000000000000000000000000000000000000000000000000000000000000093
:16660800000000000000000000000000000000000000000000007c
:20661e0000000000000000000000000000000000000000000000000000000000000000005c
:20663e0000000000000000000000000000000000000000000000000000000000000000003c
:17665e00000000000000000000000000000000000000000000000025
:20667500000000000000000000000000000000000000000000000000000000000000000005
:206695000000000000000000000000000000000000000000000000000000000000000000e5
:1666b50000000000000000000000000000000000000000000000cf
:2066cb000000000000000000000000000000000000000000000000000000000000000000af
:2066eb0000000000000000000000000000000000000000000000000000000000000000008f
:17670b00000000000000000000000000000000000000000000000077
:20672200000000000c302000000000000000000000000000000000000000000000000000fb
:20674200000000000000000000000000000000000000000000000000000000000000000037
:166762000000000000000000000000000000000000000000000021
:206778000000000000c300000000000000000000000000000000000000000000000000003e
:206798000000000000000000000000000000000000000000000000000000000000000000e1
:1767b8000000000000000000000000000000000000000000000000ca
:2067cf00000000000c3020000000000000000000000000000000000000000000000000004e
:2067ef0000000000000000000000000000000000000000000000000000000000000000008a
:16680f000000000000000000000000000000000000000000000073
:206825000000000000c3000000000000000000000000000000000000000000000000000090
:20684500000000000000000000000000000000000000000000000000000000000000000033
:1768650000000000000000000000000000000000000000000000001c
:20687c00000000000c302000000000000000000000000000000000000000000000000000a0
:20689c000000000000000000000000000000000000000000000000000000000000000000dc
:1668bc0000000000000000000000000000000000000000000000c6
:2068d2000000000000c30000000000000000000000000000000000000000000000000000e3
:2068f200000000000000000000000000000000000000000000000000000000000000000086
:1769120000000000000000000000000000000000000000000000006e
:20692900000000000c302000000000000000000000000000000000000000000000000000f2
:2069490000000000000000000000000000000000000000000000000000000000000000002e
:166969000000000000000000000000000000000000000000000018
:20697f000000000000c3000000000000000000000000000000000000000000000000000035
:20699f000000000000000000000000000000000000000000000000000000000000000000d8
:1769bf000000000000000000000000000000000000000000000000c1
:2069d600000000000c30200000000000000000000000000000000000000000000000000045
:2069f600000000000000000000000000000000000000000000000000000000000000000081
:166a1600000000000000000000000000000000000000000000006a
:206a2c000000000000c3000000000000000000000000000000000000000000000000000087
:206a4c0000000000000000000000000000000000000000000000000000000000000000002a
:176a6c00000000000000000000000000000000000000000000000013
:206a8300000000000c30200000000000000000000000000000000000000000000000000097
:206aa3000000000000000000000000000000000000000000000000000000000000000000d3
:166ac30000000000000000000000000000000000000000000000bd
:206ad9000000000000c30000000000000000000000000000000000000000000000000000da
:206af90000000000000000000000000000000000000000000000000000000000000000007d
:176b1900000000000000000000000000000000000000000000000065
:206b3000000000000c302000000000000000000000000000000000000000000000000000e9
:206b5000000000000000000000000000000000000000000000000000000000000000000025
:166b7000000000000000000000000000000000000000000000000f
:206b86000000000000c300000000000000000000000000000000000000000000000000002c
:206ba6000000000000000000000000000000000000000000000000000000000000000000cf
:176bc6000000000000000000000000000000000000000000000000b8
:206bdd00000000000c3020000000000000000000000000000000000000000000000000003c
:206bfd00000000000000000000000000000000000000000000000000000000000000000078
:166c1d000000000000000000000000000000000000000000000061
:206c33000000000000c300000000000000000000000000000000000000000000000000007e
:206c5300000000000000000000000000000000000000000000000000000000000000000021
:176c730000000000000000000000000000000000000000000000000a
:206c8a00000000000c3020000000000000000000000000000000000000000000000000008e
:206caa000000000000000000000000000000000000000000000000000000000000000000ca
:166cca0000000000000000000000000000000000000000000000b4
:206ce0000000000000c30000000000000000000000000000000000000000000000000000d1
:206d0000000000000000000000000000000000000000000000000000000000000000000073
:176d200000000000000000000000000000000000000000000000005c
:206d3700000000000c302000000000000000000000000000000000000000000000000000e0
:206d570000000000000000000000000000000000000000000000000000000000000000001c
:166d77000000000000000000000000000000000000000000000006
:206d8d000000000000c3000000000000000000000000000000000000000000000000000023
:206dad000000000000000000000000000000000000000000000000000000000000000000c6
:176dcd000000000000000000000000000000000000000000000000af
:206de400000000000c30200000000000000000000000000000000000000000000000000033
:206e040000000000000000000000000000000000000000000000000000000000000000006e
:166e24000000000000000000000000000000000000000000000058
:206e3a000000000000c3000000000000000000000000000000000000000000000000000075
:206e5a00000000000000000000000000000000000000000000000000000000000000000018
:176e7a00000000000000000000000000000000000000000000000001
:206e9100000000000c30200000000000000000000000000000000000000000000000000085
:206eb1000000000000000000000000000000000000000000000000000000000000000000c1
:166ed10000000000000000000000000000000000000000000000ab
:206ee7000000000000c30000000000000000000000000000000000000000000000000000c8
:206f070000000000000000000000000000000000000000000000000000000000000000006a
:176f2700000000000000000000000000000000000000000000000053
:206f3e00000000000c302000000000000000000000000000000000000000000000000000d7
:206f5e00000000000000000000000000000000000000000000000000000000000000000013
:166f7e0000000000000000000000000000000000000000000000fd
:206f94000000000000c300000000000000000000000000000000000000000000000000001a
:206fb4000000000000000000000000000000000000000000000000000000000000000000bd
:176fd4000000000000000000000000000000000000000000000000a6
:206feb00000000000c3020000000000000000000000000000000000000000000000000002a
:20700b00000000000000000000000000000000000000000000000000000000000000000065
:16702b00000000000000000000000000000000000000000000004f
:207041000000000000c300000000000000000000000000000000000000000000000000006c
:2070610000000000000000000000000000000000000000000000000000000000000000000f
:177081000000000000000000000000000000000000000000000000f8
:20709800000000000c3020000000000000000000000000000000000000000000000000007c
:2070b8000000000000000000000000000000000000000000000000000000000000000000b8
:1670d80000000000000000000000000000000000000000000000a2
:2070ee000000000000c30000000000000000000000000000000000000000000000000000bf
:20710e00000000000000000000000000000000000000000000000000000000000000000061
:17712e0000000000000000000000000000000000000000000000004a
:20714500000000000c302000000000000000000000000000000000000000000000000000ce
:2071650000000000000000000000000000000000000000000000000000000000000000000a
:1671850000000000000000000000000000000000000000000000f4
:20719b000000000000c3000000000000000000000000000000000000000000000000000011
:2071bb000000000000000000000000000000000000000000000000000000000000000000b4
:1771db0000000000000000000000000000000000000000000000019c
:0271f20000009b
:0371f4007200b076
:0271f700110184
:0271f900010192
:2071fb0000000000000000000000001000000000000040000000000001000000000000041f
:20721b000000000000001000000000000040000000001000000000000040000000000001b2
:16723b000000000000000400000000000010000000000000000029
:207251000000000000000000000000020000000000000800000000000020000000000000f3
:20727100800000000000020000000000000800000000020000000000000800000000000069
:1772910020000000000000800000000000020000000000000800003c
:2072a8000000000000000000000000000000000000000000000000000000000000000000c6
:2072c8000000000000000000000000000000000000000000000000000000000000000000a6
:1672e8000000000000000000000000000000000040000000000050
:2072fe00000000000000000000000000000000000000000000000000000000000000000070
:20731e0000000000000000000000000000000000000000000000000000000000000000004f
:17733e00000000000000000000000000000000000000000000000038
:20735500000000000000000000000000000000000000000000000000000000000000000018
:207375000000000000000000000000000000000000000000000000000000000000000000f8
:1673950000000000000000000000000000000000000000000000e2
:2073ab000000000000000000000000000000000000000000000000000000000000000000c2
:2073cb000000000000000000000000000000000000000000000000000000000000000000a2
:1773eb0000000000000000000000000000000000000000000000008b
:2074020000000000000000000000000000000000000000000000000000000000000000006a
:2074220000000000000000000000000000000000000000000000000000000000000000004a
:16744200000000000000000000000000000000000009010000002a
:20745800000000000000000000000000000000000000000000000000000000000000000014
:207478000000000000000000000000000000000000000000000000000000000000000000f4
:1774980000000000000000000000000000000000000080000000005d
:2074af000000000000000000000000000000000000000000000000000000000000000000bd
:2074cf0000000000000000000000000000000000000000000000000000000000000000009d
:1674ef000000000000000000000000000000000000000200000085
:20750500000000000000000000000000000000000000000000000000000000000000000066
:20752500000000000000000000000000000000000000000000000000000000000000000046
:1775450000000000000100000000000000000000000000000000002e
:20755c0000000000000000000000000000000000000000000000000000000000000000000f
:20757c000000000000000000000000000000000000000000000000000000000000000000ef
:16759c000000000000100000000000004000000000000000800009
:2075b2000000000000000000000000000000000000000000000000000000000000000000b9
:2075d200000000000000000000000000000000000000000000000000000000000000000099
:1775f20000000000000300000000000000000000000000000400007b
:20760900000000000000000000000000000000000000000000000000000000000000000061
:20762900000000000000000000000000000000000000000000000000000000000000000041
:1676490000000000001000000000000040000000000000000000db
:20765f0000000000000000000000000000000000000000000000000000000000000000000b
:20767f000000000000000000000000000000000000000000000000000000000000000000eb
:17769f000000000000000000000000000000000000000000000000d4
:2076b6000000000000000000000000000000000000000000000000000000000000000000b4
:2076d600000000000000000000000000000000000000000000000000000000000000000094
:1676f600000000000000000000000000000000000000000000007e
:20770c0000000000000000000000000000000000000000000000000000000000000000005d
:20772c0000000000000000000000000000000000000000000000000000000000000000003d
:17774c0000000000000000000000000008000000000000000000001e
:20776300000000000c300000000000000000000000000000000000000000000000000000ca
:207783000000000000000000000000000000000000000000000000000000000000000000e6
:1677a30000000000000000000000000000000000000000000000d0
:2077b9000000000000c30200000000000000000000000000000000000000000000000000eb
:2077d900000000000000000000000000000000000000000000000000000000000000000090
:1777f900000000000000000000000000000000000000000000000079
:20781000000000000c3000000000000000000000000000000000000000000000000000001c
:20783000000000000000000000000000000000000000000000000000000000000000000038
:167850000000000000000000000000000000000000000000000022
:207866000000000000c302000000000000000000000000000000000000000000000000003d
:207886000000000000000000000000000000000000000000000000000000000000000000e2
:1778a6000000000000000000000000000000000000000000000000cb
:2078bd00000000000c3000000000000000000000000000000000000000000000000000006f
:2078dd0000000000000000000000000000000000000000000000000000000000000000008b
:1678fd000000000000000000000000000000000000000000000075
:207913000000000000c302000000000000000000000000000000000000000000000000008f
:20793300000000000000000000000000000000000000000000000000000000000000000034
:1779530000000000000000000000000000000000000000000000001d
:20796a00000000000c30000000800000000000000000000000000000000000000000000041
:20798a000000000000000000000000000000000000000000000000000000000000000000dd
:1679aa0000000000000000000000000000000000000000000000c7
:2079c0000000000000c3020000500000000000000000000000000000000000000000000092
:2079e000000000000000000000000000000000000000000000000000000000000000000087
:177a000000000000000000000000000000000000000000000000006f
:207a1700000000000c30000000000000000000000000000000000000000000000000000013
:207a370000000000000000000000000000000000000000000000000000000000000000002f
:167a57000000000000000000000000000000000400000000000015
:207a6d000000000000c3020000000000000000000000000000000000000000000000000034
:207a8d000000000000000000000000000000000000000000000000000000000000000000d9
:177aad0000000000000000000000000000000000c000000000000002
:207ac400000000000c30000000000000000000000000000000000000000000000000000066
:207ae400000000000000000000000000000000000000000000000000000000000000000082
:167b0400000000000000000000000000000000000000000000006b
:207b1a000000000000c3020000000000000000000000000000000000000000000000000086
:207b3a0000000000000000000000000000000000000000000000000000000000000000002b
:177b5a00000000000000000000000000000000000000000000000014
:207b7100000000000c300000000000000000000000000000000000000000000000000000b8
:207b91000000000000000000000000000000000000000000000000000000000000000000d4
:167bb10000000000000000000000000000000000000400000000ba
:207bc7000000000000c30200000000000000000000000000000000000000000000000000d9
:207be70000000000000000000000000000000000000000000000000000000000000000007e
:177c0700000000000000000000000000000000000000000000000066
:207c1e00000000000c3000000000003c0000000000000000000000000000000000000000ce
:207c3e00000000000000000000000000000000000000000000000000000000040000000022
:167c5e0000000000000000000000000000000000000000405a0076
:207c74000000000000c3020000000033c046000000000000000000000000000000000000f2
:207c94000000000000000000000000000000000000000000000000000000000000000000d0
:177cb40000000000000000000000000000000000000000200a50003f
:207ccb00000000000c3000000000000000000000000000000000000000000000000000005d
:207ceb00000000000000000000000000000000000000000000000000000000000000000079
:167d0b000000000000000000000000000000000000000000000062
:207d21000000000000c302000000000000000000000000000000000000000000000000007d
:207d4100000000000000000000000000000000000000000000000000000000000000000022
:177d610000000000000000000000000000000000000000000000000b
:207d7800000000000c300000000000000000000000000000000000000000000000000000af
:207d98000000000000000000000000000000000000000000000000000000000000000000cb
:167db80000000000000000000000000000000000000000000000b5
:207dce000000000000c30200000000000000000000000000000000000000000000000000d0
:207dee00000000000000000000000000000000000000000000000000000000000000000075
:177e0e0000000000000000000000000000000000000000000000005d
:207e2500000000000c30000000000000000000000000000000000000000000000000000001
:207e450000000000000000000000000000000000000000000000000000000000000000001d
:167e65000000000000000000000000000000000000000000000007
:207e7b000000000000c3020000000000000000000000000000000000000000000000000022
:207e9b000000000000000000000000000000000000000000000000000000000000000000c7
:177ebb000000000000000000000000000000000000000000000000b0
:207ed200000000000c30000000000000000000000000000000000000000000000000000054
:207ef200000000000000000000000000000000000000000000000000000000000000000070
:167f12000000000000000000000000000000000000000000000059
:207f28000000000000c3020000000000000000000000000000000000000000000000000074
:207f4800000000000000000000000000000000000000000000000000000000000000000019
